{
  "_format": "hh-sol-artifact-1",
  "contractName": "Prismia",
  "sourceName": "contracts/Prismia.sol",
  "abi": [
    {
      "inputs": [
        {
          "internalType": "address",
          "name": "defaultAdmin",
          "type": "address"
        },
        {
          "internalType": "address",
          "name": "minter",
          "type": "address"
        }
      ],
      "stateMutability": "nonpayable",
      "type": "constructor"
    },
    {
      "inputs": [],
      "name": "AccessControlBadConfirmation",
      "type": "error"
    },
    {
      "inputs": [
        {
          "internalType": "address",
          "name": "account",
          "type": "address"
        },
        {
          "internalType": "bytes32",
          "name": "neededRole",
          "type": "bytes32"
        }
      ],
      "name": "AccessControlUnauthorizedAccount",
      "type": "error"
    },
    {
      "inputs": [
        {
          "internalType": "address",
          "name": "sender",
          "type": "address"
        },
        {
          "internalType": "uint256",
          "name": "tokenId",
          "type": "uint256"
        },
        {
          "internalType": "address",
          "name": "owner",
          "type": "address"
        }
      ],
      "name": "ERC721IncorrectOwner",
      "type": "error"
    },
    {
      "inputs": [
        {
          "internalType": "address",
          "name": "operator",
          "type": "address"
        },
        {
          "internalType": "uint256",
          "name": "tokenId",
          "type": "uint256"
        }
      ],
      "name": "ERC721InsufficientApproval",
      "type": "error"
    },
    {
      "inputs": [
        {
          "internalType": "address",
          "name": "approver",
          "type": "address"
        }
      ],
      "name": "ERC721InvalidApprover",
      "type": "error"
    },
    {
      "inputs": [
        {
          "internalType": "address",
          "name": "operator",
          "type": "address"
        }
      ],
      "name": "ERC721InvalidOperator",
      "type": "error"
    },
    {
      "inputs": [
        {
          "internalType": "address",
          "name": "owner",
          "type": "address"
        }
      ],
      "name": "ERC721InvalidOwner",
      "type": "error"
    },
    {
      "inputs": [
        {
          "internalType": "address",
          "name": "receiver",
          "type": "address"
        }
      ],
      "name": "ERC721InvalidReceiver",
      "type": "error"
    },
    {
      "inputs": [
        {
          "internalType": "address",
          "name": "sender",
          "type": "address"
        }
      ],
      "name": "ERC721InvalidSender",
      "type": "error"
    },
    {
      "inputs": [
        {
          "internalType": "uint256",
          "name": "tokenId",
          "type": "uint256"
        }
      ],
      "name": "ERC721NonexistentToken",
      "type": "error"
    },
    {
      "anonymous": false,
      "inputs": [
        {
          "indexed": true,
          "internalType": "address",
          "name": "owner",
          "type": "address"
        },
        {
          "indexed": true,
          "internalType": "address",
          "name": "approved",
          "type": "address"
        },
        {
          "indexed": true,
          "internalType": "uint256",
          "name": "tokenId",
          "type": "uint256"
        }
      ],
      "name": "Approval",
      "type": "event"
    },
    {
      "anonymous": false,
      "inputs": [
        {
          "indexed": true,
          "internalType": "address",
          "name": "owner",
          "type": "address"
        },
        {
          "indexed": true,
          "internalType": "address",
          "name": "operator",
          "type": "address"
        },
        {
          "indexed": false,
          "internalType": "bool",
          "name": "approved",
          "type": "bool"
        }
      ],
      "name": "ApprovalForAll",
      "type": "event"
    },
    {
      "anonymous": false,
      "inputs": [
        {
          "indexed": false,
          "internalType": "uint256",
          "name": "_fromTokenId",
          "type": "uint256"
        },
        {
          "indexed": false,
          "internalType": "uint256",
          "name": "_toTokenId",
          "type": "uint256"
        }
      ],
      "name": "BatchMetadataUpdate",
      "type": "event"
    },
    {
      "anonymous": false,
      "inputs": [
        {
          "indexed": false,
          "internalType": "uint256",
          "name": "_tokenId",
          "type": "uint256"
        }
      ],
      "name": "MetadataUpdate",
      "type": "event"
    },
    {
      "anonymous": false,
      "inputs": [
        {
          "indexed": false,
          "internalType": "uint256",
          "name": "tokenId",
          "type": "uint256"
        },
        {
          "components": [
            {
              "internalType": "string",
              "name": "uri",
              "type": "string"
            }
          ],
          "indexed": false,
          "internalType": "struct Prismia.ProductLifeCycle",
          "name": "newLifeCycle",
          "type": "tuple"
        }
      ],
      "name": "ProductLifeCycleUpdated",
      "type": "event"
    },
    {
      "anonymous": false,
      "inputs": [
        {
          "indexed": false,
          "internalType": "uint256",
          "name": "tokenId",
          "type": "uint256"
        },
        {
          "indexed": true,
          "internalType": "address",
          "name": "manufacturer",
          "type": "address"
        }
      ],
      "name": "ProductMinted",
      "type": "event"
    },
    {
      "anonymous": false,
      "inputs": [
        {
          "indexed": true,
          "internalType": "bytes32",
          "name": "role",
          "type": "bytes32"
        },
        {
          "indexed": true,
          "internalType": "bytes32",
          "name": "previousAdminRole",
          "type": "bytes32"
        },
        {
          "indexed": true,
          "internalType": "bytes32",
          "name": "newAdminRole",
          "type": "bytes32"
        }
      ],
      "name": "RoleAdminChanged",
      "type": "event"
    },
    {
      "anonymous": false,
      "inputs": [
        {
          "indexed": true,
          "internalType": "bytes32",
          "name": "role",
          "type": "bytes32"
        },
        {
          "indexed": true,
          "internalType": "address",
          "name": "account",
          "type": "address"
        },
        {
          "indexed": true,
          "internalType": "address",
          "name": "sender",
          "type": "address"
        }
      ],
      "name": "RoleGranted",
      "type": "event"
    },
    {
      "anonymous": false,
      "inputs": [
        {
          "indexed": true,
          "internalType": "bytes32",
          "name": "role",
          "type": "bytes32"
        },
        {
          "indexed": true,
          "internalType": "address",
          "name": "account",
          "type": "address"
        },
        {
          "indexed": true,
          "internalType": "address",
          "name": "sender",
          "type": "address"
        }
      ],
      "name": "RoleRevoked",
      "type": "event"
    },
    {
      "anonymous": false,
      "inputs": [
        {
          "indexed": true,
          "internalType": "address",
          "name": "from",
          "type": "address"
        },
        {
          "indexed": true,
          "internalType": "address",
          "name": "to",
          "type": "address"
        },
        {
          "indexed": true,
          "internalType": "uint256",
          "name": "tokenId",
          "type": "uint256"
        }
      ],
      "name": "Transfer",
      "type": "event"
    },
    {
      "inputs": [],
      "name": "DEFAULT_ADMIN_ROLE",
      "outputs": [
        {
          "internalType": "bytes32",
          "name": "",
          "type": "bytes32"
        }
      ],
      "stateMutability": "view",
      "type": "function"
    },
    {
      "inputs": [],
      "name": "MANUFACTURER",
      "outputs": [
        {
          "internalType": "bytes32",
          "name": "",
          "type": "bytes32"
        }
      ],
      "stateMutability": "view",
      "type": "function"
    },
    {
      "inputs": [
        {
          "internalType": "uint256",
          "name": "tokenId",
          "type": "uint256"
        },
        {
          "internalType": "string",
          "name": "uri",
          "type": "string"
        }
      ],
      "name": "addProductLifeCycle",
      "outputs": [],
      "stateMutability": "nonpayable",
      "type": "function"
    },
    {
      "inputs": [
        {
          "internalType": "address",
          "name": "to",
          "type": "address"
        },
        {
          "internalType": "uint256",
          "name": "tokenId",
          "type": "uint256"
        }
      ],
      "name": "approve",
      "outputs": [],
      "stateMutability": "nonpayable",
      "type": "function"
    },
    {
      "inputs": [
        {
          "internalType": "address",
          "name": "owner",
          "type": "address"
        }
      ],
      "name": "balanceOf",
      "outputs": [
        {
          "internalType": "uint256",
          "name": "",
          "type": "uint256"
        }
      ],
      "stateMutability": "view",
      "type": "function"
    },
    {
      "inputs": [
        {
          "internalType": "uint256",
          "name": "tokenId",
          "type": "uint256"
        }
      ],
      "name": "getApproved",
      "outputs": [
        {
          "internalType": "address",
          "name": "",
          "type": "address"
        }
      ],
      "stateMutability": "view",
      "type": "function"
    },
    {
      "inputs": [],
      "name": "getOwnedProducts",
      "outputs": [
        {
          "internalType": "uint256[]",
          "name": "",
          "type": "uint256[]"
        }
      ],
      "stateMutability": "view",
      "type": "function"
    },
    {
      "inputs": [
        {
          "internalType": "uint256",
          "name": "tokenId",
          "type": "uint256"
        }
      ],
      "name": "getProductLifeCycle",
      "outputs": [
        {
          "components": [
            {
              "components": [
                {
                  "internalType": "string",
                  "name": "uri",
                  "type": "string"
                }
              ],
              "internalType": "struct Prismia.ProductLifeCycle[]",
              "name": "productLifeCycles",
              "type": "tuple[]"
            }
          ],
          "internalType": "struct Prismia.Product",
          "name": "",
          "type": "tuple"
        }
      ],
      "stateMutability": "view",
      "type": "function"
    },
    {
      "inputs": [
        {
          "internalType": "bytes32",
          "name": "role",
          "type": "bytes32"
        }
      ],
      "name": "getRoleAdmin",
      "outputs": [
        {
          "internalType": "bytes32",
          "name": "",
          "type": "bytes32"
        }
      ],
      "stateMutability": "view",
      "type": "function"
    },
    {
      "inputs": [
        {
          "internalType": "bytes32",
          "name": "role",
          "type": "bytes32"
        },
        {
          "internalType": "address",
          "name": "account",
          "type": "address"
        }
      ],
      "name": "grantRole",
      "outputs": [],
      "stateMutability": "nonpayable",
      "type": "function"
    },
    {
      "inputs": [
        {
          "internalType": "bytes32",
          "name": "role",
          "type": "bytes32"
        },
        {
          "internalType": "address",
          "name": "account",
          "type": "address"
        }
      ],
      "name": "hasRole",
      "outputs": [
        {
          "internalType": "bool",
          "name": "",
          "type": "bool"
        }
      ],
      "stateMutability": "view",
      "type": "function"
    },
    {
      "inputs": [
        {
          "internalType": "address",
          "name": "owner",
          "type": "address"
        },
        {
          "internalType": "address",
          "name": "operator",
          "type": "address"
        }
      ],
      "name": "isApprovedForAll",
      "outputs": [
        {
          "internalType": "bool",
          "name": "",
          "type": "bool"
        }
      ],
      "stateMutability": "view",
      "type": "function"
    },
    {
      "inputs": [
        {
          "internalType": "string",
          "name": "uri",
          "type": "string"
        },
        {
          "internalType": "address",
          "name": "to",
          "type": "address"
        }
      ],
      "name": "mintProduct",
      "outputs": [],
      "stateMutability": "nonpayable",
      "type": "function"
    },
    {
      "inputs": [],
      "name": "name",
      "outputs": [
        {
          "internalType": "string",
          "name": "",
          "type": "string"
        }
      ],
      "stateMutability": "view",
      "type": "function"
    },
    {
      "inputs": [
        {
          "internalType": "uint256",
          "name": "tokenId",
          "type": "uint256"
        }
      ],
      "name": "ownerOf",
      "outputs": [
        {
          "internalType": "address",
          "name": "",
          "type": "address"
        }
      ],
      "stateMutability": "view",
      "type": "function"
    },
    {
      "inputs": [
        {
          "internalType": "bytes32",
          "name": "role",
          "type": "bytes32"
        },
        {
          "internalType": "address",
          "name": "callerConfirmation",
          "type": "address"
        }
      ],
      "name": "renounceRole",
      "outputs": [],
      "stateMutability": "nonpayable",
      "type": "function"
    },
    {
      "inputs": [
        {
          "internalType": "bytes32",
          "name": "role",
          "type": "bytes32"
        },
        {
          "internalType": "address",
          "name": "account",
          "type": "address"
        }
      ],
      "name": "revokeRole",
      "outputs": [],
      "stateMutability": "nonpayable",
      "type": "function"
    },
    {
      "inputs": [
        {
          "internalType": "address",
          "name": "from",
          "type": "address"
        },
        {
          "internalType": "address",
          "name": "to",
          "type": "address"
        },
        {
          "internalType": "uint256",
          "name": "tokenId",
          "type": "uint256"
        }
      ],
      "name": "safeTransferFrom",
      "outputs": [],
      "stateMutability": "nonpayable",
      "type": "function"
    },
    {
      "inputs": [
        {
          "internalType": "address",
          "name": "from",
          "type": "address"
        },
        {
          "internalType": "address",
          "name": "to",
          "type": "address"
        },
        {
          "internalType": "uint256",
          "name": "tokenId",
          "type": "uint256"
        },
        {
          "internalType": "bytes",
          "name": "data",
          "type": "bytes"
        }
      ],
      "name": "safeTransferFrom",
      "outputs": [],
      "stateMutability": "nonpayable",
      "type": "function"
    },
    {
      "inputs": [
        {
          "internalType": "address",
          "name": "operator",
          "type": "address"
        },
        {
          "internalType": "bool",
          "name": "approved",
          "type": "bool"
        }
      ],
      "name": "setApprovalForAll",
      "outputs": [],
      "stateMutability": "nonpayable",
      "type": "function"
    },
    {
      "inputs": [
        {
          "internalType": "bytes4",
          "name": "interfaceId",
          "type": "bytes4"
        }
      ],
      "name": "supportsInterface",
      "outputs": [
        {
          "internalType": "bool",
          "name": "",
          "type": "bool"
        }
      ],
      "stateMutability": "view",
      "type": "function"
    },
    {
      "inputs": [],
      "name": "symbol",
      "outputs": [
        {
          "internalType": "string",
          "name": "",
          "type": "string"
        }
      ],
      "stateMutability": "view",
      "type": "function"
    },
    {
      "inputs": [
        {
          "internalType": "uint256",
          "name": "tokenId",
          "type": "uint256"
        }
      ],
      "name": "tokenURI",
      "outputs": [
        {
          "internalType": "string",
          "name": "",
          "type": "string"
        }
      ],
      "stateMutability": "view",
      "type": "function"
    },
    {
      "inputs": [
        {
          "internalType": "address",
          "name": "from",
          "type": "address"
        },
        {
          "internalType": "address",
          "name": "to",
          "type": "address"
        },
        {
          "internalType": "uint256",
          "name": "tokenId",
          "type": "uint256"
        }
      ],
      "name": "transferFrom",
      "outputs": [],
      "stateMutability": "nonpayable",
      "type": "function"
    }
  ],
  "bytecode": "0x608060405234801561001057600080fd5b506040516138be3803806138be833981810160405281019061003291906102e0565b6040518060400160405280600781526020017f507269736d6961000000000000000000000000000000000000000000000000008152506040518060400160405280600381526020017f445050000000000000000000000000000000000000000000000000000000000081525081600090816100ad9190610570565b5080600190816100bd9190610570565b5050506100d36000801b8361010c60201b60201c565b506101047f6659d833875b88922d2576dad6c137a09ba676496bb2010bf8a72397792167a08261010c60201b60201c565b505050610642565b600061011e838361020a60201b60201c565b6101ff5760016007600085815260200190815260200160002060000160008473ffffffffffffffffffffffffffffffffffffffff1673ffffffffffffffffffffffffffffffffffffffff16815260200190815260200160002060006101000a81548160ff02191690831515021790555061019c61027560201b60201c565b73ffffffffffffffffffffffffffffffffffffffff168273ffffffffffffffffffffffffffffffffffffffff16847f2f8788117e7eff1d82e926ec794901d17c78024a50270940304540a733656f0d60405160405180910390a460019050610204565b600090505b92915050565b60006007600084815260200190815260200160002060000160008373ffffffffffffffffffffffffffffffffffffffff1673ffffffffffffffffffffffffffffffffffffffff16815260200190815260200160002060009054906101000a900460ff16905092915050565b600033905090565b600080fd5b600073ffffffffffffffffffffffffffffffffffffffff82169050919050565b60006102ad82610282565b9050919050565b6102bd816102a2565b81146102c857600080fd5b50565b6000815190506102da816102b4565b92915050565b600080604083850312156102f7576102f661027d565b5b6000610305858286016102cb565b9250506020610316858286016102cb565b9150509250929050565b600081519050919050565b7f4e487b7100000000000000000000000000000000000000000000000000000000600052604160045260246000fd5b7f4e487b7100000000000000000000000000000000000000000000000000000000600052602260045260246000fd5b600060028204905060018216806103a157607f821691505b6020821081036103b4576103b361035a565b5b50919050565b60008190508160005260206000209050919050565b60006020601f8301049050919050565b600082821b905092915050565b60006008830261041c7fffffffffffffffffffffffffffffffffffffffffffffffffffffffffffffffff826103df565b61042686836103df565b95508019841693508086168417925050509392505050565b6000819050919050565b6000819050919050565b600061046d6104686104638461043e565b610448565b61043e565b9050919050565b6000819050919050565b61048783610452565b61049b61049382610474565b8484546103ec565b825550505050565b600090565b6104b06104a3565b6104bb81848461047e565b505050565b5b818110156104df576104d46000826104a8565b6001810190506104c1565b5050565b601f821115610524576104f5816103ba565b6104fe846103cf565b8101602085101561050d578190505b610521610519856103cf565b8301826104c0565b50505b505050565b600082821c905092915050565b600061054760001984600802610529565b1980831691505092915050565b60006105608383610536565b9150826002028217905092915050565b61057982610320565b67ffffffffffffffff8111156105925761059161032b565b5b61059c8254610389565b6105a78282856104e3565b600060209050601f8311600181146105da57600084156105c8578287015190505b6105d28582610554565b86555061063a565b601f1984166105e8866103ba565b60005b82811015610610578489015182556001820191506020850194506020810190506105eb565b8683101561062d5784890151610629601f891682610536565b8355505b6001600288020188555050505b505050505050565b61326d806106516000396000f3fe608060405234801561001057600080fd5b50600436106101585760003560e01c806370a08231116100c3578063a22cb4651161007c578063a22cb465146103eb578063b7693a1314610407578063b88d4fde14610423578063c87b56dd1461043f578063d547741f1461046f578063e985e9c51461048b57610158565b806370a082311461031557806376d5523e1461034557806391d148541461036157806395d89b4114610391578063a0eb01f2146103af578063a217fddf146103cd57610158565b80632f2ff15d116101155780632f2ff15d1461024357806336568abe1461025f57806342842e0e1461027b57806349ec99ee146102975780636352211e146102b55780636eb6b039146102e557610158565b806301ffc9a71461015d57806306fdde031461018d578063081812fc146101ab578063095ea7b3146101db57806323b872dd146101f7578063248a9ca314610213575b600080fd5b6101776004803603810190610172919061224b565b6104bb565b6040516101849190612293565b60405180910390f35b6101956104cd565b6040516101a2919061233e565b60405180910390f35b6101c560048036038101906101c09190612396565b61055f565b6040516101d29190612404565b60405180910390f35b6101f560048036038101906101f0919061244b565b61057b565b005b610211600480360381019061020c919061248b565b610591565b005b61022d60048036038101906102289190612514565b610693565b60405161023a9190612550565b60405180910390f35b61025d6004803603810190610258919061256b565b6106b3565b005b6102796004803603810190610274919061256b565b6106d5565b005b6102956004803603810190610290919061248b565b610750565b005b61029f610770565b6040516102ac9190612550565b60405180910390f35b6102cf60048036038101906102ca9190612396565b610794565b6040516102dc9190612404565b60405180910390f35b6102ff60048036038101906102fa9190612396565b6107a6565b60405161030c919061270b565b60405180910390f35b61032f600480360381019061032a919061272d565b6108c0565b60405161033c9190612769565b60405180910390f35b61035f600480360381019061035a91906128b9565b61097a565b005b61037b6004803603810190610376919061256b565b610a8d565b6040516103889190612293565b60405180910390f35b610399610af8565b6040516103a6919061233e565b60405180910390f35b6103b7610b8a565b6040516103c491906129d3565b60405180910390f35b6103d5610c1f565b6040516103e29190612550565b60405180910390f35b61040560048036038101906104009190612a21565b610c26565b005b610421600480360381019061041c9190612a61565b610c3c565b005b61043d60048036038101906104389190612b5e565b610d83565b005b61045960048036038101906104549190612396565b610da8565b604051610466919061233e565b60405180910390f35b6104896004803603810190610484919061256b565b610dba565b005b6104a560048036038101906104a09190612be1565b610ddc565b6040516104b29190612293565b60405180910390f35b60006104c682610e70565b9050919050565b6060600080546104dc90612c50565b80601f016020809104026020016040519081016040528092919081815260200182805461050890612c50565b80156105555780601f1061052a57610100808354040283529160200191610555565b820191906000526020600020905b81548152906001019060200180831161053857829003601f168201915b5050505050905090565b600061056a82610eea565b5061057482610f72565b9050919050565b61058d8282610588610faf565b610fb7565b5050565b600073ffffffffffffffffffffffffffffffffffffffff168273ffffffffffffffffffffffffffffffffffffffff16036106035760006040517f64a0ae920000000000000000000000000000000000000000000000000000000081526004016105fa9190612404565b60405180910390fd5b60006106178383610612610faf565b610fc9565b90508373ffffffffffffffffffffffffffffffffffffffff168173ffffffffffffffffffffffffffffffffffffffff161461068d578382826040517f64283d7b00000000000000000000000000000000000000000000000000000000815260040161068493929190612c81565b60405180910390fd5b50505050565b600060076000838152602001908152602001600020600101549050919050565b6106bc82610693565b6106c5816111e3565b6106cf83836111f7565b50505050565b6106dd610faf565b73ffffffffffffffffffffffffffffffffffffffff168173ffffffffffffffffffffffffffffffffffffffff1614610741576040517f6697b23200000000000000000000000000000000000000000000000000000000815260040160405180910390fd5b61074b82826112e9565b505050565b61076b83838360405180602001604052806000815250610d83565b505050565b7f6659d833875b88922d2576dad6c137a09ba676496bb2010bf8a72397792167a081565b600061079f82610eea565b9050919050565b6107ae6121cc565b6009600083815260200190815260200160002060405180602001604052908160008201805480602002602001604051908101604052809291908181526020016000905b828210156108b15783829060005260206000200160405180602001604052908160008201805461082090612c50565b80601f016020809104026020016040519081016040528092919081815260200182805461084c90612c50565b80156108995780601f1061086e57610100808354040283529160200191610899565b820191906000526020600020905b81548152906001019060200180831161087c57829003601f168201915b505050505081525050815260200190600101906107f1565b50505050815250509050919050565b60008073ffffffffffffffffffffffffffffffffffffffff168273ffffffffffffffffffffffffffffffffffffffff16036109335760006040517f89c62b6400000000000000000000000000000000000000000000000000000000815260040161092a9190612404565b60405180910390fd5b600360008373ffffffffffffffffffffffffffffffffffffffff1673ffffffffffffffffffffffffffffffffffffffff168152602001908152602001600020549050919050565b7f6659d833875b88922d2576dad6c137a09ba676496bb2010bf8a72397792167a06109a4816111e3565b6000600860008154809291906109b990612ce7565b9190505590506109c983826113dc565b6109d381856113fa565b600a60003373ffffffffffffffffffffffffffffffffffffffff1673ffffffffffffffffffffffffffffffffffffffff1681526020019081526020016000208190806001815401808255809150506001900390600052602060002001600090919091909150553373ffffffffffffffffffffffffffffffffffffffff167ff3a853d626792f09966551e5316e149f7320d034cb6a408a8b3d8eba20deea3b82604051610a7f9190612769565b60405180910390a250505050565b60006007600084815260200190815260200160002060000160008373ffffffffffffffffffffffffffffffffffffffff1673ffffffffffffffffffffffffffffffffffffffff16815260200190815260200160002060009054906101000a900460ff16905092915050565b606060018054610b0790612c50565b80601f0160208091040260200160405190810160405280929190818152602001828054610b3390612c50565b8015610b805780601f10610b5557610100808354040283529160200191610b80565b820191906000526020600020905b815481529060010190602001808311610b6357829003601f168201915b5050505050905090565b6060600a60003373ffffffffffffffffffffffffffffffffffffffff1673ffffffffffffffffffffffffffffffffffffffff168152602001908152602001600020805480602002602001604051908101604052809291908181526020018280548015610c1557602002820191906000526020600020905b815481526020019060010190808311610c01575b5050505050905090565b6000801b81565b610c38610c31610faf565b8383611456565b5050565b7f6659d833875b88922d2576dad6c137a09ba676496bb2010bf8a72397792167a0610c66816111e3565b600073ffffffffffffffffffffffffffffffffffffffff16610c87846115c5565b73ffffffffffffffffffffffffffffffffffffffff1603610cdd576040517f08c379a0000000000000000000000000000000000000000000000000000000008152600401610cd490612d7b565b60405180910390fd5b600060405180602001604052808481525090506009600085815260200190815260200160002060000181908060018154018082558091505060019003906000526020600020016000909190919091506000820151816000019081610d419190612f47565b5050507f5f69f0f55830f4904029dc9ecf610401d52a5e97a1be7ca7c4d4782019bb4aca8482604051610d75929190613043565b60405180910390a150505050565b610d8e848484610591565b610da2610d99610faf565b85858585611602565b50505050565b6060610db3826117b3565b9050919050565b610dc382610693565b610dcc816111e3565b610dd683836112e9565b50505050565b6000600560008473ffffffffffffffffffffffffffffffffffffffff1673ffffffffffffffffffffffffffffffffffffffff16815260200190815260200160002060008373ffffffffffffffffffffffffffffffffffffffff1673ffffffffffffffffffffffffffffffffffffffff16815260200190815260200160002060009054906101000a900460ff16905092915050565b60007f7965db0b000000000000000000000000000000000000000000000000000000007bffffffffffffffffffffffffffffffffffffffffffffffffffffffff1916827bffffffffffffffffffffffffffffffffffffffffffffffffffffffff19161480610ee35750610ee2826118c6565b5b9050919050565b600080610ef6836115c5565b9050600073ffffffffffffffffffffffffffffffffffffffff168173ffffffffffffffffffffffffffffffffffffffff1603610f6957826040517f7e273289000000000000000000000000000000000000000000000000000000008152600401610f609190612769565b60405180910390fd5b80915050919050565b60006004600083815260200190815260200160002060009054906101000a900473ffffffffffffffffffffffffffffffffffffffff169050919050565b600033905090565b610fc48383836001611927565b505050565b600080610fd5846115c5565b9050600073ffffffffffffffffffffffffffffffffffffffff168373ffffffffffffffffffffffffffffffffffffffff161461101757611016818486611aec565b5b600073ffffffffffffffffffffffffffffffffffffffff168173ffffffffffffffffffffffffffffffffffffffff16146110a857611059600085600080611927565b6001600360008373ffffffffffffffffffffffffffffffffffffffff1673ffffffffffffffffffffffffffffffffffffffff168152602001908152602001600020600082825403925050819055505b600073ffffffffffffffffffffffffffffffffffffffff168573ffffffffffffffffffffffffffffffffffffffff161461112b576001600360008773ffffffffffffffffffffffffffffffffffffffff1673ffffffffffffffffffffffffffffffffffffffff168152602001908152602001600020600082825401925050819055505b846002600086815260200190815260200160002060006101000a81548173ffffffffffffffffffffffffffffffffffffffff021916908373ffffffffffffffffffffffffffffffffffffffff160217905550838573ffffffffffffffffffffffffffffffffffffffff168273ffffffffffffffffffffffffffffffffffffffff167fddf252ad1be2c89b69c2b068fc378daa952ba7f163c4a11628f55a4df523b3ef60405160405180910390a4809150509392505050565b6111f4816111ef610faf565b611bb0565b50565b60006112038383610a8d565b6112de5760016007600085815260200190815260200160002060000160008473ffffffffffffffffffffffffffffffffffffffff1673ffffffffffffffffffffffffffffffffffffffff16815260200190815260200160002060006101000a81548160ff02191690831515021790555061127b610faf565b73ffffffffffffffffffffffffffffffffffffffff168273ffffffffffffffffffffffffffffffffffffffff16847f2f8788117e7eff1d82e926ec794901d17c78024a50270940304540a733656f0d60405160405180910390a4600190506112e3565b600090505b92915050565b60006112f58383610a8d565b156113d15760006007600085815260200190815260200160002060000160008473ffffffffffffffffffffffffffffffffffffffff1673ffffffffffffffffffffffffffffffffffffffff16815260200190815260200160002060006101000a81548160ff02191690831515021790555061136e610faf565b73ffffffffffffffffffffffffffffffffffffffff168273ffffffffffffffffffffffffffffffffffffffff16847ff6391f5c32d9c69d2a47ea670b442974b53935d1edc7fd64eb21e047a839171b60405160405180910390a4600190506113d6565b600090505b92915050565b6113f6828260405180602001604052806000815250611c01565b5050565b8060066000848152602001908152602001600020908161141a9190612f47565b507ff8e1a15aba9398e019f0b49df1a4fde98ee17ae345cb5f6b5e2c27f5033e8ce78260405161144a9190612769565b60405180910390a15050565b600073ffffffffffffffffffffffffffffffffffffffff168273ffffffffffffffffffffffffffffffffffffffff16036114c757816040517f5b08ba180000000000000000000000000000000000000000000000000000000081526004016114be9190612404565b60405180910390fd5b80600560008573ffffffffffffffffffffffffffffffffffffffff1673ffffffffffffffffffffffffffffffffffffffff16815260200190815260200160002060008473ffffffffffffffffffffffffffffffffffffffff1673ffffffffffffffffffffffffffffffffffffffff16815260200190815260200160002060006101000a81548160ff0219169083151502179055508173ffffffffffffffffffffffffffffffffffffffff168373ffffffffffffffffffffffffffffffffffffffff167f17307eab39ab6107e8899845ad3d59bd9653f200f220920489ca2b5937696c31836040516115b89190612293565b60405180910390a3505050565b60006002600083815260200190815260200160002060009054906101000a900473ffffffffffffffffffffffffffffffffffffffff169050919050565b60008373ffffffffffffffffffffffffffffffffffffffff163b11156117ac578273ffffffffffffffffffffffffffffffffffffffff1663150b7a02868685856040518563ffffffff1660e01b815260040161166194939291906130c8565b6020604051808303816000875af192505050801561169d57506040513d601f19601f8201168201806040525081019061169a9190613129565b60015b611721573d80600081146116cd576040519150601f19603f3d011682016040523d82523d6000602084013e6116d2565b606091505b50600081510361171957836040517f64a0ae920000000000000000000000000000000000000000000000000000000081526004016117109190612404565b60405180910390fd5b805181602001fd5b63150b7a0260e01b7bffffffffffffffffffffffffffffffffffffffffffffffffffffffff1916817bffffffffffffffffffffffffffffffffffffffffffffffffffffffff1916146117aa57836040517f64a0ae920000000000000000000000000000000000000000000000000000000081526004016117a19190612404565b60405180910390fd5b505b5050505050565b60606117be82610eea565b5060006006600084815260200190815260200160002080546117df90612c50565b80601f016020809104026020016040519081016040528092919081815260200182805461180b90612c50565b80156118585780601f1061182d57610100808354040283529160200191611858565b820191906000526020600020905b81548152906001019060200180831161183b57829003601f168201915b505050505090506000611869611c25565b9050600081510361187e5781925050506118c1565b6000825111156118b357808260405160200161189b929190613192565b604051602081830303815290604052925050506118c1565b6118bc84611c3c565b925050505b919050565b6000634906490660e01b7bffffffffffffffffffffffffffffffffffffffffffffffffffffffff1916827bffffffffffffffffffffffffffffffffffffffffffffffffffffffff19161480611920575061191f82611ca5565b5b9050919050565b80806119605750600073ffffffffffffffffffffffffffffffffffffffff168273ffffffffffffffffffffffffffffffffffffffff1614155b15611a9457600061197084610eea565b9050600073ffffffffffffffffffffffffffffffffffffffff168373ffffffffffffffffffffffffffffffffffffffff16141580156119db57508273ffffffffffffffffffffffffffffffffffffffff168173ffffffffffffffffffffffffffffffffffffffff1614155b80156119ee57506119ec8184610ddc565b155b15611a3057826040517fa9fbf51f000000000000000000000000000000000000000000000000000000008152600401611a279190612404565b60405180910390fd5b8115611a9257838573ffffffffffffffffffffffffffffffffffffffff168273ffffffffffffffffffffffffffffffffffffffff167f8c5be1e5ebec7d5bd14f71427d1e84f3dd0314c0f7b2291e5b200ac8c7c3b92560405160405180910390a45b505b836004600085815260200190815260200160002060006101000a81548173ffffffffffffffffffffffffffffffffffffffff021916908373ffffffffffffffffffffffffffffffffffffffff16021790555050505050565b611af7838383611d87565b611bab57600073ffffffffffffffffffffffffffffffffffffffff168373ffffffffffffffffffffffffffffffffffffffff1603611b6c57806040517f7e273289000000000000000000000000000000000000000000000000000000008152600401611b639190612769565b60405180910390fd5b81816040517f177e802f000000000000000000000000000000000000000000000000000000008152600401611ba29291906131b6565b60405180910390fd5b505050565b611bba8282610a8d565b611bfd5780826040517fe2517d3f000000000000000000000000000000000000000000000000000000008152600401611bf49291906131df565b60405180910390fd5b5050565b611c0b8383611e48565b611c20611c16610faf565b6000858585611602565b505050565b606060405180602001604052806000815250905090565b6060611c4782610eea565b506000611c52611c25565b90506000815111611c725760405180602001604052806000815250611c9d565b80611c7c84611f41565b604051602001611c8d929190613192565b6040516020818303038152906040525b915050919050565b60007f80ac58cd000000000000000000000000000000000000000000000000000000007bffffffffffffffffffffffffffffffffffffffffffffffffffffffff1916827bffffffffffffffffffffffffffffffffffffffffffffffffffffffff19161480611d7057507f5b5e139f000000000000000000000000000000000000000000000000000000007bffffffffffffffffffffffffffffffffffffffffffffffffffffffff1916827bffffffffffffffffffffffffffffffffffffffffffffffffffffffff1916145b80611d805750611d7f8261200f565b5b9050919050565b60008073ffffffffffffffffffffffffffffffffffffffff168373ffffffffffffffffffffffffffffffffffffffff1614158015611e3f57508273ffffffffffffffffffffffffffffffffffffffff168473ffffffffffffffffffffffffffffffffffffffff161480611e005750611dff8484610ddc565b5b80611e3e57508273ffffffffffffffffffffffffffffffffffffffff16611e2683610f72565b73ffffffffffffffffffffffffffffffffffffffff16145b5b90509392505050565b600073ffffffffffffffffffffffffffffffffffffffff168273ffffffffffffffffffffffffffffffffffffffff1603611eba5760006040517f64a0ae92000000000000000000000000000000000000000000000000000000008152600401611eb19190612404565b60405180910390fd5b6000611ec883836000610fc9565b9050600073ffffffffffffffffffffffffffffffffffffffff168173ffffffffffffffffffffffffffffffffffffffff1614611f3c5760006040517f73c6ac6e000000000000000000000000000000000000000000000000000000008152600401611f339190612404565b60405180910390fd5b505050565b606060006001611f5084612079565b01905060008167ffffffffffffffff811115611f6f57611f6e61278e565b5b6040519080825280601f01601f191660200182016040528015611fa15781602001600182028036833780820191505090505b509050600082602001820190505b600115612004578080600190039150507f3031323334353637383961626364656600000000000000000000000000000000600a86061a8153600a8581611ff857611ff7613208565b5b04945060008503611faf575b819350505050919050565b60007f01ffc9a7000000000000000000000000000000000000000000000000000000007bffffffffffffffffffffffffffffffffffffffffffffffffffffffff1916827bffffffffffffffffffffffffffffffffffffffffffffffffffffffff1916149050919050565b600080600090507a184f03e93ff9f4daa797ed6e38ed64bf6a1f01000000000000000083106120d7577a184f03e93ff9f4daa797ed6e38ed64bf6a1f01000000000000000083816120cd576120cc613208565b5b0492506040810190505b6d04ee2d6d415b85acef81000000008310612114576d04ee2d6d415b85acef8100000000838161210a57612109613208565b5b0492506020810190505b662386f26fc10000831061214357662386f26fc10000838161213957612138613208565b5b0492506010810190505b6305f5e100831061216c576305f5e100838161216257612161613208565b5b0492506008810190505b612710831061219157612710838161218757612186613208565b5b0492506004810190505b606483106121b457606483816121aa576121a9613208565b5b0492506002810190505b600a83106121c3576001810190505b80915050919050565b6040518060200160405280606081525090565b6000604051905090565b600080fd5b600080fd5b60007fffffffff0000000000000000000000000000000000000000000000000000000082169050919050565b612228816121f3565b811461223357600080fd5b50565b6000813590506122458161221f565b92915050565b600060208284031215612261576122606121e9565b5b600061226f84828501612236565b91505092915050565b60008115159050919050565b61228d81612278565b82525050565b60006020820190506122a86000830184612284565b92915050565b600081519050919050565b600082825260208201905092915050565b60005b838110156122e85780820151818401526020810190506122cd565b60008484015250505050565b6000601f19601f8301169050919050565b6000612310826122ae565b61231a81856122b9565b935061232a8185602086016122ca565b612333816122f4565b840191505092915050565b600060208201905081810360008301526123588184612305565b905092915050565b6000819050919050565b61237381612360565b811461237e57600080fd5b50565b6000813590506123908161236a565b92915050565b6000602082840312156123ac576123ab6121e9565b5b60006123ba84828501612381565b91505092915050565b600073ffffffffffffffffffffffffffffffffffffffff82169050919050565b60006123ee826123c3565b9050919050565b6123fe816123e3565b82525050565b600060208201905061241960008301846123f5565b92915050565b612428816123e3565b811461243357600080fd5b50565b6000813590506124458161241f565b92915050565b60008060408385031215612462576124616121e9565b5b600061247085828601612436565b925050602061248185828601612381565b9150509250929050565b6000806000606084860312156124a4576124a36121e9565b5b60006124b286828701612436565b93505060206124c386828701612436565b92505060406124d486828701612381565b9150509250925092565b6000819050919050565b6124f1816124de565b81146124fc57600080fd5b50565b60008135905061250e816124e8565b92915050565b60006020828403121561252a576125296121e9565b5b6000612538848285016124ff565b91505092915050565b61254a816124de565b82525050565b60006020820190506125656000830184612541565b92915050565b60008060408385031215612582576125816121e9565b5b6000612590858286016124ff565b92505060206125a185828601612436565b9150509250929050565b600081519050919050565b600082825260208201905092915050565b6000819050602082019050919050565b600082825260208201905092915050565b60006125f3826122ae565b6125fd81856125d7565b935061260d8185602086016122ca565b612616816122f4565b840191505092915050565b6000602083016000830151848203600086015261263e82826125e8565b9150508091505092915050565b60006126578383612621565b905092915050565b6000602082019050919050565b6000612677826125ab565b61268181856125b6565b935083602082028501612693856125c7565b8060005b858110156126cf57848403895281516126b0858261264b565b94506126bb8361265f565b925060208a01995050600181019050612697565b50829750879550505050505092915050565b600060208301600083015184820360008601526126fe828261266c565b9150508091505092915050565b6000602082019050818103600083015261272581846126e1565b905092915050565b600060208284031215612743576127426121e9565b5b600061275184828501612436565b91505092915050565b61276381612360565b82525050565b600060208201905061277e600083018461275a565b92915050565b600080fd5b600080fd5b7f4e487b7100000000000000000000000000000000000000000000000000000000600052604160045260246000fd5b6127c6826122f4565b810181811067ffffffffffffffff821117156127e5576127e461278e565b5b80604052505050565b60006127f86121df565b905061280482826127bd565b919050565b600067ffffffffffffffff8211156128245761282361278e565b5b61282d826122f4565b9050602081019050919050565b82818337600083830152505050565b600061285c61285784612809565b6127ee565b90508281526020810184848401111561287857612877612789565b5b61288384828561283a565b509392505050565b600082601f8301126128a05761289f612784565b5b81356128b0848260208601612849565b91505092915050565b600080604083850312156128d0576128cf6121e9565b5b600083013567ffffffffffffffff8111156128ee576128ed6121ee565b5b6128fa8582860161288b565b925050602061290b85828601612436565b9150509250929050565b600081519050919050565b600082825260208201905092915050565b6000819050602082019050919050565b61294a81612360565b82525050565b600061295c8383612941565b60208301905092915050565b6000602082019050919050565b600061298082612915565b61298a8185612920565b935061299583612931565b8060005b838110156129c65781516129ad8882612950565b97506129b883612968565b925050600181019050612999565b5085935050505092915050565b600060208201905081810360008301526129ed8184612975565b905092915050565b6129fe81612278565b8114612a0957600080fd5b50565b600081359050612a1b816129f5565b92915050565b60008060408385031215612a3857612a376121e9565b5b6000612a4685828601612436565b9250506020612a5785828601612a0c565b9150509250929050565b60008060408385031215612a7857612a776121e9565b5b6000612a8685828601612381565b925050602083013567ffffffffffffffff811115612aa757612aa66121ee565b5b612ab38582860161288b565b9150509250929050565b600067ffffffffffffffff821115612ad857612ad761278e565b5b612ae1826122f4565b9050602081019050919050565b6000612b01612afc84612abd565b6127ee565b905082815260208101848484011115612b1d57612b1c612789565b5b612b2884828561283a565b509392505050565b600082601f830112612b4557612b44612784565b5b8135612b55848260208601612aee565b91505092915050565b60008060008060808587031215612b7857612b776121e9565b5b6000612b8687828801612436565b9450506020612b9787828801612436565b9350506040612ba887828801612381565b925050606085013567ffffffffffffffff811115612bc957612bc86121ee565b5b612bd587828801612b30565b91505092959194509250565b60008060408385031215612bf857612bf76121e9565b5b6000612c0685828601612436565b9250506020612c1785828601612436565b9150509250929050565b7f4e487b7100000000000000000000000000000000000000000000000000000000600052602260045260246000fd5b60006002820490506001821680612c6857607f821691505b602082108103612c7b57612c7a612c21565b5b50919050565b6000606082019050612c9660008301866123f5565b612ca3602083018561275a565b612cb060408301846123f5565b949350505050565b7f4e487b7100000000000000000000000000000000000000000000000000000000600052601160045260246000fd5b6000612cf282612360565b91507fffffffffffffffffffffffffffffffffffffffffffffffffffffffffffffffff8203612d2457612d23612cb8565b5b600182019050919050565b7f546f6b656e20646f6573206e6f74206578697374000000000000000000000000600082015250565b6000612d656014836122b9565b9150612d7082612d2f565b602082019050919050565b60006020820190508181036000830152612d9481612d58565b9050919050565b60008190508160005260206000209050919050565b60006020601f8301049050919050565b600082821b905092915050565b600060088302612dfd7fffffffffffffffffffffffffffffffffffffffffffffffffffffffffffffffff82612dc0565b612e078683612dc0565b95508019841693508086168417925050509392505050565b6000819050919050565b6000612e44612e3f612e3a84612360565b612e1f565b612360565b9050919050565b6000819050919050565b612e5e83612e29565b612e72612e6a82612e4b565b848454612dcd565b825550505050565b600090565b612e87612e7a565b612e92818484612e55565b505050565b5b81811015612eb657612eab600082612e7f565b600181019050612e98565b5050565b601f821115612efb57612ecc81612d9b565b612ed584612db0565b81016020851015612ee4578190505b612ef8612ef085612db0565b830182612e97565b50505b505050565b600082821c905092915050565b6000612f1e60001984600802612f00565b1980831691505092915050565b6000612f378383612f0d565b9150826002028217905092915050565b612f50826122ae565b67ffffffffffffffff811115612f6957612f6861278e565b5b612f738254612c50565b612f7e828285612eba565b600060209050601f831160018114612fb15760008415612f9f578287015190505b612fa98582612f2b565b865550613011565b601f198416612fbf86612d9b565b60005b82811015612fe757848901518255600182019150602085019450602081019050612fc2565b868310156130045784890151613000601f891682612f0d565b8355505b6001600288020188555050505b505050505050565b6000602083016000830151848203600086015261303682826125e8565b9150508091505092915050565b6000604082019050613058600083018561275a565b818103602083015261306a8184613019565b90509392505050565b600081519050919050565b600082825260208201905092915050565b600061309a82613073565b6130a4818561307e565b93506130b48185602086016122ca565b6130bd816122f4565b840191505092915050565b60006080820190506130dd60008301876123f5565b6130ea60208301866123f5565b6130f7604083018561275a565b8181036060830152613109818461308f565b905095945050505050565b6000815190506131238161221f565b92915050565b60006020828403121561313f5761313e6121e9565b5b600061314d84828501613114565b91505092915050565b600081905092915050565b600061316c826122ae565b6131768185613156565b93506131868185602086016122ca565b80840191505092915050565b600061319e8285613161565b91506131aa8284613161565b91508190509392505050565b60006040820190506131cb60008301856123f5565b6131d8602083018461275a565b9392505050565b60006040820190506131f460008301856123f5565b6132016020830184612541565b9392505050565b7f4e487b7100000000000000000000000000000000000000000000000000000000600052601260045260246000fdfea2646970667358221220b8947ec6c462bc2d403569fd9c338fad9ad3f6f97018199bb3e67da79510180264736f6c634300081c0033",
  "linkReferences": {},
  "deployedLinkReferences": {}
}