{
  "_format": "hh-sol-artifact-1",
  "contractName": "Prismia",
  "sourceName": "contracts/Prismia.sol",
  "abi": [
    {
      "inputs": [],
      "stateMutability": "nonpayable",
      "type": "constructor"
    },
    {
      "inputs": [
        {
          "internalType": "address",
          "name": "sender",
          "type": "address"
        },
        {
          "internalType": "uint256",
          "name": "tokenId",
          "type": "uint256"
        },
        {
          "internalType": "address",
          "name": "owner",
          "type": "address"
        }
      ],
      "name": "ERC721IncorrectOwner",
      "type": "error"
    },
    {
      "inputs": [
        {
          "internalType": "address",
          "name": "operator",
          "type": "address"
        },
        {
          "internalType": "uint256",
          "name": "tokenId",
          "type": "uint256"
        }
      ],
      "name": "ERC721InsufficientApproval",
      "type": "error"
    },
    {
      "inputs": [
        {
          "internalType": "address",
          "name": "approver",
          "type": "address"
        }
      ],
      "name": "ERC721InvalidApprover",
      "type": "error"
    },
    {
      "inputs": [
        {
          "internalType": "address",
          "name": "operator",
          "type": "address"
        }
      ],
      "name": "ERC721InvalidOperator",
      "type": "error"
    },
    {
      "inputs": [
        {
          "internalType": "address",
          "name": "owner",
          "type": "address"
        }
      ],
      "name": "ERC721InvalidOwner",
      "type": "error"
    },
    {
      "inputs": [
        {
          "internalType": "address",
          "name": "receiver",
          "type": "address"
        }
      ],
      "name": "ERC721InvalidReceiver",
      "type": "error"
    },
    {
      "inputs": [
        {
          "internalType": "address",
          "name": "sender",
          "type": "address"
        }
      ],
      "name": "ERC721InvalidSender",
      "type": "error"
    },
    {
      "inputs": [
        {
          "internalType": "uint256",
          "name": "tokenId",
          "type": "uint256"
        }
      ],
      "name": "ERC721NonexistentToken",
      "type": "error"
    },
    {
      "anonymous": false,
      "inputs": [
        {
          "indexed": true,
          "internalType": "address",
          "name": "owner",
          "type": "address"
        },
        {
          "indexed": true,
          "internalType": "address",
          "name": "approved",
          "type": "address"
        },
        {
          "indexed": true,
          "internalType": "uint256",
          "name": "tokenId",
          "type": "uint256"
        }
      ],
      "name": "Approval",
      "type": "event"
    },
    {
      "anonymous": false,
      "inputs": [
        {
          "indexed": true,
          "internalType": "address",
          "name": "owner",
          "type": "address"
        },
        {
          "indexed": true,
          "internalType": "address",
          "name": "operator",
          "type": "address"
        },
        {
          "indexed": false,
          "internalType": "bool",
          "name": "approved",
          "type": "bool"
        }
      ],
      "name": "ApprovalForAll",
      "type": "event"
    },
    {
      "anonymous": false,
      "inputs": [
        {
          "indexed": false,
          "internalType": "uint256",
          "name": "_fromTokenId",
          "type": "uint256"
        },
        {
          "indexed": false,
          "internalType": "uint256",
          "name": "_toTokenId",
          "type": "uint256"
        }
      ],
      "name": "BatchMetadataUpdate",
      "type": "event"
    },
    {
      "anonymous": false,
      "inputs": [
        {
          "indexed": false,
          "internalType": "uint256",
          "name": "_tokenId",
          "type": "uint256"
        }
      ],
      "name": "MetadataUpdate",
      "type": "event"
    },
    {
      "anonymous": false,
      "inputs": [
        {
          "indexed": true,
          "internalType": "uint256",
          "name": "productId",
          "type": "uint256"
        },
        {
          "components": [
            {
              "internalType": "uint256",
              "name": "timeStamp",
              "type": "uint256"
            },
            {
              "internalType": "string",
              "name": "uri",
              "type": "string"
            }
          ],
          "indexed": false,
          "internalType": "struct Prismia.ProductLifeCycle",
          "name": "newLifeCycle",
          "type": "tuple"
        }
      ],
      "name": "ProductLifeCycleUpdated",
      "type": "event"
    },
    {
      "anonymous": false,
      "inputs": [
        {
          "indexed": true,
          "internalType": "uint256",
          "name": "productId",
          "type": "uint256"
        },
        {
          "indexed": true,
          "internalType": "address",
          "name": "manufacturer",
          "type": "address"
        }
      ],
      "name": "ProductMinted",
      "type": "event"
    },
    {
      "anonymous": false,
      "inputs": [
        {
          "components": [
            {
              "components": [
                {
                  "internalType": "address",
                  "name": "manufacturer",
                  "type": "address"
                },
                {
                  "internalType": "uint256",
                  "name": "timeStamp",
                  "type": "uint256"
                },
                {
                  "internalType": "uint256",
                  "name": "tokenId",
                  "type": "uint256"
                }
              ],
              "internalType": "struct Prismia.Product",
              "name": "product",
              "type": "tuple"
            },
            {
              "components": [
                {
                  "internalType": "uint256",
                  "name": "timeStamp",
                  "type": "uint256"
                },
                {
                  "internalType": "string",
                  "name": "uri",
                  "type": "string"
                }
              ],
              "internalType": "struct Prismia.ProductLifeCycle[]",
              "name": "lifeCycle",
              "type": "tuple[]"
            }
          ],
          "indexed": true,
          "internalType": "struct Prismia.ProductResponse",
          "name": "response",
          "type": "tuple"
        },
        {
          "indexed": true,
          "internalType": "address",
          "name": "owner",
          "type": "address"
        },
        {
          "indexed": false,
          "internalType": "uint256",
          "name": "",
          "type": "uint256"
        }
      ],
      "name": "ProductVerify",
      "type": "event"
    },
    {
      "anonymous": false,
      "inputs": [
        {
          "indexed": true,
          "internalType": "address",
          "name": "from",
          "type": "address"
        },
        {
          "indexed": true,
          "internalType": "address",
          "name": "to",
          "type": "address"
        },
        {
          "indexed": true,
          "internalType": "uint256",
          "name": "tokenId",
          "type": "uint256"
        }
      ],
      "name": "Transfer",
      "type": "event"
    },
    {
      "inputs": [
        {
          "internalType": "address",
          "name": "to",
          "type": "address"
        },
        {
          "internalType": "uint256",
          "name": "tokenId",
          "type": "uint256"
        }
      ],
      "name": "approve",
      "outputs": [],
      "stateMutability": "nonpayable",
      "type": "function"
    },
    {
      "inputs": [
        {
          "internalType": "address",
          "name": "owner",
          "type": "address"
        }
      ],
      "name": "balanceOf",
      "outputs": [
        {
          "internalType": "uint256",
          "name": "",
          "type": "uint256"
        }
      ],
      "stateMutability": "view",
      "type": "function"
    },
    {
      "inputs": [
        {
          "internalType": "uint256",
          "name": "tokenId",
          "type": "uint256"
        }
      ],
      "name": "getApproved",
      "outputs": [
        {
          "internalType": "address",
          "name": "",
          "type": "address"
        }
      ],
      "stateMutability": "view",
      "type": "function"
    },
    {
      "inputs": [
        {
          "internalType": "uint256",
          "name": "tokenId",
          "type": "uint256"
        }
      ],
      "name": "hashTokenId",
      "outputs": [
        {
          "internalType": "string",
          "name": "",
          "type": "string"
        }
      ],
      "stateMutability": "pure",
      "type": "function"
    },
    {
      "inputs": [
        {
          "internalType": "address",
          "name": "owner",
          "type": "address"
        },
        {
          "internalType": "address",
          "name": "operator",
          "type": "address"
        }
      ],
      "name": "isApprovedForAll",
      "outputs": [
        {
          "internalType": "bool",
          "name": "",
          "type": "bool"
        }
      ],
      "stateMutability": "view",
      "type": "function"
    },
    {
      "inputs": [
        {
          "internalType": "string",
          "name": "uri",
          "type": "string"
        },
        {
          "internalType": "address",
          "name": "to",
          "type": "address"
        }
      ],
      "name": "mintProduct",
      "outputs": [],
      "stateMutability": "nonpayable",
      "type": "function"
    },
    {
      "inputs": [],
      "name": "name",
      "outputs": [
        {
          "internalType": "string",
          "name": "",
          "type": "string"
        }
      ],
      "stateMutability": "view",
      "type": "function"
    },
    {
      "inputs": [
        {
          "internalType": "uint256",
          "name": "tokenId",
          "type": "uint256"
        }
      ],
      "name": "ownerOf",
      "outputs": [
        {
          "internalType": "address",
          "name": "",
          "type": "address"
        }
      ],
      "stateMutability": "view",
      "type": "function"
    },
    {
      "inputs": [
        {
          "internalType": "uint256",
          "name": "",
          "type": "uint256"
        }
      ],
      "name": "productDataByProductId",
      "outputs": [
        {
          "internalType": "address",
          "name": "manufacturer",
          "type": "address"
        },
        {
          "internalType": "uint256",
          "name": "timeStamp",
          "type": "uint256"
        },
        {
          "internalType": "uint256",
          "name": "tokenId",
          "type": "uint256"
        }
      ],
      "stateMutability": "view",
      "type": "function"
    },
    {
      "inputs": [
        {
          "internalType": "address",
          "name": "from",
          "type": "address"
        },
        {
          "internalType": "address",
          "name": "to",
          "type": "address"
        },
        {
          "internalType": "uint256",
          "name": "tokenId",
          "type": "uint256"
        }
      ],
      "name": "safeTransferFrom",
      "outputs": [],
      "stateMutability": "nonpayable",
      "type": "function"
    },
    {
      "inputs": [
        {
          "internalType": "address",
          "name": "from",
          "type": "address"
        },
        {
          "internalType": "address",
          "name": "to",
          "type": "address"
        },
        {
          "internalType": "uint256",
          "name": "tokenId",
          "type": "uint256"
        },
        {
          "internalType": "bytes",
          "name": "data",
          "type": "bytes"
        }
      ],
      "name": "safeTransferFrom",
      "outputs": [],
      "stateMutability": "nonpayable",
      "type": "function"
    },
    {
      "inputs": [
        {
          "internalType": "address",
          "name": "operator",
          "type": "address"
        },
        {
          "internalType": "bool",
          "name": "approved",
          "type": "bool"
        }
      ],
      "name": "setApprovalForAll",
      "outputs": [],
      "stateMutability": "nonpayable",
      "type": "function"
    },
    {
      "inputs": [
        {
          "internalType": "bytes4",
          "name": "interfaceId",
          "type": "bytes4"
        }
      ],
      "name": "supportsInterface",
      "outputs": [
        {
          "internalType": "bool",
          "name": "",
          "type": "bool"
        }
      ],
      "stateMutability": "view",
      "type": "function"
    },
    {
      "inputs": [],
      "name": "symbol",
      "outputs": [
        {
          "internalType": "string",
          "name": "",
          "type": "string"
        }
      ],
      "stateMutability": "view",
      "type": "function"
    },
    {
      "inputs": [
        {
          "internalType": "uint256",
          "name": "tokenId",
          "type": "uint256"
        }
      ],
      "name": "tokenURI",
      "outputs": [
        {
          "internalType": "string",
          "name": "",
          "type": "string"
        }
      ],
      "stateMutability": "view",
      "type": "function"
    },
    {
      "inputs": [
        {
          "internalType": "address",
          "name": "from",
          "type": "address"
        },
        {
          "internalType": "address",
          "name": "to",
          "type": "address"
        },
        {
          "internalType": "uint256",
          "name": "tokenId",
          "type": "uint256"
        }
      ],
      "name": "transferFrom",
      "outputs": [],
      "stateMutability": "nonpayable",
      "type": "function"
    },
    {
      "inputs": [
        {
          "internalType": "uint256",
          "name": "productId",
          "type": "uint256"
        },
        {
          "internalType": "address",
          "name": "to",
          "type": "address"
        },
        {
          "internalType": "string",
          "name": "uri",
          "type": "string"
        }
      ],
      "name": "updateProductLifeCycle",
      "outputs": [],
      "stateMutability": "nonpayable",
      "type": "function"
    },
    {
      "inputs": [
        {
          "internalType": "uint256",
          "name": "productId",
          "type": "uint256"
        }
      ],
      "name": "verifyProduct",
      "outputs": [
        {
          "components": [
            {
              "components": [
                {
                  "internalType": "address",
                  "name": "manufacturer",
                  "type": "address"
                },
                {
                  "internalType": "uint256",
                  "name": "timeStamp",
                  "type": "uint256"
                },
                {
                  "internalType": "uint256",
                  "name": "tokenId",
                  "type": "uint256"
                }
              ],
              "internalType": "struct Prismia.Product",
              "name": "product",
              "type": "tuple"
            },
            {
              "components": [
                {
                  "internalType": "uint256",
                  "name": "timeStamp",
                  "type": "uint256"
                },
                {
                  "internalType": "string",
                  "name": "uri",
                  "type": "string"
                }
              ],
              "internalType": "struct Prismia.ProductLifeCycle[]",
              "name": "lifeCycle",
              "type": "tuple[]"
            }
          ],
          "internalType": "struct Prismia.ProductResponse",
          "name": "",
          "type": "tuple"
        }
      ],
      "stateMutability": "nonpayable",
      "type": "function"
    }
  ],
  "bytecode": "0x608060405234801561001057600080fd5b506040518060400160405280600781526020017f507269736d6961000000000000000000000000000000000000000000000000008152506040518060400160405280600381526020017f4450500000000000000000000000000000000000000000000000000000000000815250816000908161008c91906102f4565b50806001908161009c91906102f4565b5050506103c6565b600081519050919050565b7f4e487b7100000000000000000000000000000000000000000000000000000000600052604160045260246000fd5b7f4e487b7100000000000000000000000000000000000000000000000000000000600052602260045260246000fd5b6000600282049050600182168061012557607f821691505b602082108103610138576101376100de565b5b50919050565b60008190508160005260206000209050919050565b60006020601f8301049050919050565b600082821b905092915050565b6000600883026101a07fffffffffffffffffffffffffffffffffffffffffffffffffffffffffffffffff82610163565b6101aa8683610163565b95508019841693508086168417925050509392505050565b6000819050919050565b6000819050919050565b60006101f16101ec6101e7846101c2565b6101cc565b6101c2565b9050919050565b6000819050919050565b61020b836101d6565b61021f610217826101f8565b848454610170565b825550505050565b600090565b610234610227565b61023f818484610202565b505050565b5b818110156102635761025860008261022c565b600181019050610245565b5050565b601f8211156102a8576102798161013e565b61028284610153565b81016020851015610291578190505b6102a561029d85610153565b830182610244565b50505b505050565b600082821c905092915050565b60006102cb600019846008026102ad565b1980831691505092915050565b60006102e483836102ba565b9150826002028217905092915050565b6102fd826100a4565b67ffffffffffffffff811115610316576103156100af565b5b610320825461010d565b61032b828285610267565b600060209050601f83116001811461035e576000841561034c578287015190505b61035685826102d8565b8655506103be565b601f19841661036c8661013e565b60005b828110156103945784890151825560018201915060208501945060208101905061036f565b868310156103b157848901516103ad601f8916826102ba565b8355505b6001600288020188555050505b505050505050565b613716806103d56000396000f3fe608060405234801561001057600080fd5b50600436106101165760003560e01c806370a08231116100a25780639c7e9cca116100715780639c7e9cca14610303578063a22cb46514610335578063b88d4fde14610351578063c87b56dd1461036d578063e985e9c51461039d57610116565b806370a082311461027d57806376d5523e146102ad57806380195666146102c957806395d89b41146102e557610116565b8063095ea7b3116100e9578063095ea7b3146101c957806323b872dd146101e557806342842e0e14610201578063524e84621461021d5780636352211e1461024d57610116565b806301ffc9a71461011b57806306fdde031461014b578063081812fc14610169578063081e14ca14610199575b600080fd5b61013560048036038101906101309190612431565b6103cd565b6040516101429190612479565b60405180910390f35b6101536103df565b6040516101609190612524565b60405180910390f35b610183600480360381019061017e919061257c565b610471565b60405161019091906125ea565b60405180910390f35b6101b360048036038101906101ae919061257c565b61048d565b6040516101c09190612524565b60405180910390f35b6101e360048036038101906101de9190612631565b6104d3565b005b6101ff60048036038101906101fa9190612671565b6104e9565b005b61021b60048036038101906102169190612671565b6105eb565b005b6102376004803603810190610232919061257c565b61060b565b60405161024491906128aa565b60405180910390f35b6102676004803603810190610262919061257c565b610965565b60405161027491906125ea565b60405180910390f35b610297600480360381019061029291906128cc565b610977565b6040516102a49190612908565b60405180910390f35b6102c760048036038101906102c29190612a58565b610a31565b005b6102e360048036038101906102de9190612ab4565b610b51565b005b6102ed610d8a565b6040516102fa9190612524565b60405180910390f35b61031d6004803603810190610318919061257c565b610e1c565b60405161032c93929190612b23565b60405180910390f35b61034f600480360381019061034a9190612b86565b610e66565b005b61036b60048036038101906103669190612c67565b610e7c565b005b6103876004803603810190610382919061257c565b610ea1565b6040516103949190612524565b60405180910390f35b6103b760048036038101906103b29190612cea565b610eb3565b6040516103c49190612479565b60405180910390f35b60006103d882610f47565b9050919050565b6060600080546103ee90612d59565b80601f016020809104026020016040519081016040528092919081815260200182805461041a90612d59565b80156104675780601f1061043c57610100808354040283529160200191610467565b820191906000526020600020905b81548152906001019060200180831161044a57829003601f168201915b5050505050905090565b600061047c82610fa8565b5061048682611030565b9050919050565b60606000826040516020016104a29190612dab565b60405160208183030381529060405280519060200120905060006104c782600a61106d565b90508092505050919050565b6104e582826104e0611275565b61127d565b5050565b600073ffffffffffffffffffffffffffffffffffffffff168273ffffffffffffffffffffffffffffffffffffffff160361055b5760006040517f64a0ae9200000000000000000000000000000000000000000000000000000000815260040161055291906125ea565b60405180910390fd5b600061056f838361056a611275565b61128f565b90508373ffffffffffffffffffffffffffffffffffffffff168173ffffffffffffffffffffffffffffffffffffffff16146105e5578382826040517f64283d7b0000000000000000000000000000000000000000000000000000000081526004016105dc93929190612dc6565b60405180910390fd5b50505050565b61060683838360405180602001604052806000815250610e7c565b505050565b610613612354565b600073ffffffffffffffffffffffffffffffffffffffff166008600084815260200190815260200160002060000160009054906101000a900473ffffffffffffffffffffffffffffffffffffffff1673ffffffffffffffffffffffffffffffffffffffff16036106b8576040517f08c379a00000000000000000000000000000000000000000000000000000000081526004016106af90612e49565b60405180910390fd5b6000600860008481526020019081526020016000206040518060600160405290816000820160009054906101000a900473ffffffffffffffffffffffffffffffffffffffff1673ffffffffffffffffffffffffffffffffffffffff1673ffffffffffffffffffffffffffffffffffffffff16815260200160018201548152602001600282015481525050905060606000600960008681526020019081526020016000208054905011156108715760096000858152602001908152602001600020805480602002602001604051908101604052809291908181526020016000905b828210156108665783829060005260206000209060020201604051806040016040529081600082015481526020016001820180546107d590612d59565b80601f016020809104026020016040519081016040528092919081815260200182805461080190612d59565b801561084e5780601f106108235761010080835404028352916020019161084e565b820191906000526020600020905b81548152906001019060200180831161083157829003601f168201915b50505050508152505081526020019060010190610798565b5050505090506108c9565b600067ffffffffffffffff81111561088c5761088b61292d565b5b6040519080825280602002602001820160405280156108c557816020015b6108b2612374565b8152602001906001900390816108aa5790505b5090505b600060405180604001604052808481526020018381525090503373ffffffffffffffffffffffffffffffffffffffff1681604051610907919061305d565b60405180910390207f9abc813bb65ae521c98aa5440cb5e4c0a612a6f53eb47e9b62c1d74e3f0b2f0c8760405161093e9190612908565b60405180910390a36040518060400160405280848152602001838152509350505050919050565b600061097082610fa8565b9050919050565b60008073ffffffffffffffffffffffffffffffffffffffff168273ffffffffffffffffffffffffffffffffffffffff16036109ea5760006040517f89c62b640000000000000000000000000000000000000000000000000000000081526004016109e191906125ea565b60405180910390fd5b600360008373ffffffffffffffffffffffffffffffffffffffff1673ffffffffffffffffffffffffffffffffffffffff168152602001908152602001600020549050919050565b600060076000815480929190610a46906130a3565b919050559050610a5682826114a9565b610a6081846114c7565b600060405180606001604052803373ffffffffffffffffffffffffffffffffffffffff168152602001428152602001838152509050806008600084815260200190815260200160002060008201518160000160006101000a81548173ffffffffffffffffffffffffffffffffffffffff021916908373ffffffffffffffffffffffffffffffffffffffff16021790555060208201518160010155604082015181600201559050503373ffffffffffffffffffffffffffffffffffffffff16827ff3a853d626792f09966551e5316e149f7320d034cb6a408a8b3d8eba20deea3b60405160405180910390a350505050565b600060086000858152602001908152602001600020600201549050600073ffffffffffffffffffffffffffffffffffffffff16610b8d82611523565b73ffffffffffffffffffffffffffffffffffffffff1603610be3576040517f08c379a0000000000000000000000000000000000000000000000000000000008152600401610bda90613137565b60405180910390fd5b3373ffffffffffffffffffffffffffffffffffffffff16610c0382611523565b73ffffffffffffffffffffffffffffffffffffffff1614610c59576040517f08c379a0000000000000000000000000000000000000000000000000000000008152600401610c50906131a3565b60405180910390fd5b6000604051806040016040528042815260200184815250905060096000868152602001908152602001600020819080600181540180825580915050600190039060005260206000209060020201600090919091909150600082015181600001556020820151816001019081610cce919061336f565b505050600073ffffffffffffffffffffffffffffffffffffffff168473ffffffffffffffffffffffffffffffffffffffff1614158015610d3a57503373ffffffffffffffffffffffffffffffffffffffff168473ffffffffffffffffffffffffffffffffffffffff1614155b15610d4b57610d4a338584611560565b5b847f0add1dfa1a0ccce672f7fe0eb097977ca212252de04643915c4a1ef83895227a82604051610d7b919061347e565b60405180910390a25050505050565b606060018054610d9990612d59565b80601f0160208091040260200160405190810160405280929190818152602001828054610dc590612d59565b8015610e125780601f10610de757610100808354040283529160200191610e12565b820191906000526020600020905b815481529060010190602001808311610df557829003601f168201915b5050505050905090565b60086020528060005260406000206000915090508060000160009054906101000a900473ffffffffffffffffffffffffffffffffffffffff16908060010154908060020154905083565b610e78610e71611275565b83836116cd565b5050565b610e878484846104e9565b610e9b610e92611275565b8585858561183c565b50505050565b6060610eac826119ed565b9050919050565b6000600560008473ffffffffffffffffffffffffffffffffffffffff1673ffffffffffffffffffffffffffffffffffffffff16815260200190815260200160002060008373ffffffffffffffffffffffffffffffffffffffff1673ffffffffffffffffffffffffffffffffffffffff16815260200190815260200160002060009054906101000a900460ff16905092915050565b6000634906490660e01b7bffffffffffffffffffffffffffffffffffffffffffffffffffffffff1916827bffffffffffffffffffffffffffffffffffffffffffffffffffffffff19161480610fa15750610fa082611b00565b5b9050919050565b600080610fb483611523565b9050600073ffffffffffffffffffffffffffffffffffffffff168173ffffffffffffffffffffffffffffffffffffffff160361102757826040517f7e27328900000000000000000000000000000000000000000000000000000000815260040161101e9190612908565b60405180910390fd5b80915050919050565b60006004600083815260200190815260200160002060009054906101000a900473ffffffffffffffffffffffffffffffffffffffff169050919050565b606060006040518060400160405280601081526020017f3031323334353637383961626364656600000000000000000000000000000000815250905060006002846110b891906134a0565b67ffffffffffffffff8111156110d1576110d061292d565b5b6040519080825280601f01601f1916602001820160405280156111035781602001600182028036833780820191505090505b50905060005b848110156112695782600f6004888460208110611129576111286134e2565b5b1a60f81b7effffffffffffffffffffffffffffffffffffffffffffffffffffffffffffff1916901c60f81c1660ff1681518110611169576111686134e2565b5b602001015160f81c60f81b8260028361118291906134a0565b81518110611193576111926134e2565b5b60200101907effffffffffffffffffffffffffffffffffffffffffffffffffffffffffffff1916908160001a90535082600f60f81b8783602081106111db576111da6134e2565b5b1a60f81b1660f81c60ff16815181106111f7576111f66134e2565b5b602001015160f81c60f81b8260028361121091906134a0565b600161121c9190613511565b8151811061122d5761122c6134e2565b5b60200101907effffffffffffffffffffffffffffffffffffffffffffffffffffffffffffff1916908160001a9053508080600101915050611109565b50809250505092915050565b600033905090565b61128a8383836001611be2565b505050565b60008061129b84611523565b9050600073ffffffffffffffffffffffffffffffffffffffff168373ffffffffffffffffffffffffffffffffffffffff16146112dd576112dc818486611da7565b5b600073ffffffffffffffffffffffffffffffffffffffff168173ffffffffffffffffffffffffffffffffffffffff161461136e5761131f600085600080611be2565b6001600360008373ffffffffffffffffffffffffffffffffffffffff1673ffffffffffffffffffffffffffffffffffffffff168152602001908152602001600020600082825403925050819055505b600073ffffffffffffffffffffffffffffffffffffffff168573ffffffffffffffffffffffffffffffffffffffff16146113f1576001600360008773ffffffffffffffffffffffffffffffffffffffff1673ffffffffffffffffffffffffffffffffffffffff168152602001908152602001600020600082825401925050819055505b846002600086815260200190815260200160002060006101000a81548173ffffffffffffffffffffffffffffffffffffffff021916908373ffffffffffffffffffffffffffffffffffffffff160217905550838573ffffffffffffffffffffffffffffffffffffffff168273ffffffffffffffffffffffffffffffffffffffff167fddf252ad1be2c89b69c2b068fc378daa952ba7f163c4a11628f55a4df523b3ef60405160405180910390a4809150509392505050565b6114c3828260405180602001604052806000815250611e6b565b5050565b806006600084815260200190815260200160002090816114e7919061336f565b507ff8e1a15aba9398e019f0b49df1a4fde98ee17ae345cb5f6b5e2c27f5033e8ce7826040516115179190612908565b60405180910390a15050565b60006002600083815260200190815260200160002060009054906101000a900473ffffffffffffffffffffffffffffffffffffffff169050919050565b600073ffffffffffffffffffffffffffffffffffffffff168273ffffffffffffffffffffffffffffffffffffffff16036115d25760006040517f64a0ae920000000000000000000000000000000000000000000000000000000081526004016115c991906125ea565b60405180910390fd5b60006115e08383600061128f565b9050600073ffffffffffffffffffffffffffffffffffffffff168173ffffffffffffffffffffffffffffffffffffffff160361165357816040517f7e27328900000000000000000000000000000000000000000000000000000000815260040161164a9190612908565b60405180910390fd5b8373ffffffffffffffffffffffffffffffffffffffff168173ffffffffffffffffffffffffffffffffffffffff16146116c7578382826040517f64283d7b0000000000000000000000000000000000000000000000000000000081526004016116be93929190612dc6565b60405180910390fd5b50505050565b600073ffffffffffffffffffffffffffffffffffffffff168273ffffffffffffffffffffffffffffffffffffffff160361173e57816040517f5b08ba1800000000000000000000000000000000000000000000000000000000815260040161173591906125ea565b60405180910390fd5b80600560008573ffffffffffffffffffffffffffffffffffffffff1673ffffffffffffffffffffffffffffffffffffffff16815260200190815260200160002060008473ffffffffffffffffffffffffffffffffffffffff1673ffffffffffffffffffffffffffffffffffffffff16815260200190815260200160002060006101000a81548160ff0219169083151502179055508173ffffffffffffffffffffffffffffffffffffffff168373ffffffffffffffffffffffffffffffffffffffff167f17307eab39ab6107e8899845ad3d59bd9653f200f220920489ca2b5937696c318360405161182f9190612479565b60405180910390a3505050565b60008373ffffffffffffffffffffffffffffffffffffffff163b11156119e6578273ffffffffffffffffffffffffffffffffffffffff1663150b7a02868685856040518563ffffffff1660e01b815260040161189b949392919061359a565b6020604051808303816000875af19250505080156118d757506040513d601f19601f820116820180604052508101906118d491906135fb565b60015b61195b573d8060008114611907576040519150601f19603f3d011682016040523d82523d6000602084013e61190c565b606091505b50600081510361195357836040517f64a0ae9200000000000000000000000000000000000000000000000000000000815260040161194a91906125ea565b60405180910390fd5b805181602001fd5b63150b7a0260e01b7bffffffffffffffffffffffffffffffffffffffffffffffffffffffff1916817bffffffffffffffffffffffffffffffffffffffffffffffffffffffff1916146119e457836040517f64a0ae920000000000000000000000000000000000000000000000000000000081526004016119db91906125ea565b60405180910390fd5b505b5050505050565b60606119f882610fa8565b506000600660008481526020019081526020016000208054611a1990612d59565b80601f0160208091040260200160405190810160405280929190818152602001828054611a4590612d59565b8015611a925780601f10611a6757610100808354040283529160200191611a92565b820191906000526020600020905b815481529060010190602001808311611a7557829003601f168201915b505050505090506000611aa3611e8f565b90506000815103611ab8578192505050611afb565b600082511115611aed578082604051602001611ad5929190613664565b60405160208183030381529060405292505050611afb565b611af684611ea6565b925050505b919050565b60007f80ac58cd000000000000000000000000000000000000000000000000000000007bffffffffffffffffffffffffffffffffffffffffffffffffffffffff1916827bffffffffffffffffffffffffffffffffffffffffffffffffffffffff19161480611bcb57507f5b5e139f000000000000000000000000000000000000000000000000000000007bffffffffffffffffffffffffffffffffffffffffffffffffffffffff1916827bffffffffffffffffffffffffffffffffffffffffffffffffffffffff1916145b80611bdb5750611bda82611f0f565b5b9050919050565b8080611c1b5750600073ffffffffffffffffffffffffffffffffffffffff168273ffffffffffffffffffffffffffffffffffffffff1614155b15611d4f576000611c2b84610fa8565b9050600073ffffffffffffffffffffffffffffffffffffffff168373ffffffffffffffffffffffffffffffffffffffff1614158015611c9657508273ffffffffffffffffffffffffffffffffffffffff168173ffffffffffffffffffffffffffffffffffffffff1614155b8015611ca95750611ca78184610eb3565b155b15611ceb57826040517fa9fbf51f000000000000000000000000000000000000000000000000000000008152600401611ce291906125ea565b60405180910390fd5b8115611d4d57838573ffffffffffffffffffffffffffffffffffffffff168273ffffffffffffffffffffffffffffffffffffffff167f8c5be1e5ebec7d5bd14f71427d1e84f3dd0314c0f7b2291e5b200ac8c7c3b92560405160405180910390a45b505b836004600085815260200190815260200160002060006101000a81548173ffffffffffffffffffffffffffffffffffffffff021916908373ffffffffffffffffffffffffffffffffffffffff16021790555050505050565b611db2838383611f79565b611e6657600073ffffffffffffffffffffffffffffffffffffffff168373ffffffffffffffffffffffffffffffffffffffff1603611e2757806040517f7e273289000000000000000000000000000000000000000000000000000000008152600401611e1e9190612908565b60405180910390fd5b81816040517f177e802f000000000000000000000000000000000000000000000000000000008152600401611e5d929190613688565b60405180910390fd5b505050565b611e75838361203a565b611e8a611e80611275565b600085858561183c565b505050565b606060405180602001604052806000815250905090565b6060611eb182610fa8565b506000611ebc611e8f565b90506000815111611edc5760405180602001604052806000815250611f07565b80611ee684612133565b604051602001611ef7929190613664565b6040516020818303038152906040525b915050919050565b60007f01ffc9a7000000000000000000000000000000000000000000000000000000007bffffffffffffffffffffffffffffffffffffffffffffffffffffffff1916827bffffffffffffffffffffffffffffffffffffffffffffffffffffffff1916149050919050565b60008073ffffffffffffffffffffffffffffffffffffffff168373ffffffffffffffffffffffffffffffffffffffff161415801561203157508273ffffffffffffffffffffffffffffffffffffffff168473ffffffffffffffffffffffffffffffffffffffff161480611ff25750611ff18484610eb3565b5b8061203057508273ffffffffffffffffffffffffffffffffffffffff1661201883611030565b73ffffffffffffffffffffffffffffffffffffffff16145b5b90509392505050565b600073ffffffffffffffffffffffffffffffffffffffff168273ffffffffffffffffffffffffffffffffffffffff16036120ac5760006040517f64a0ae920000000000000000000000000000000000000000000000000000000081526004016120a391906125ea565b60405180910390fd5b60006120ba8383600061128f565b9050600073ffffffffffffffffffffffffffffffffffffffff168173ffffffffffffffffffffffffffffffffffffffff161461212e5760006040517f73c6ac6e00000000000000000000000000000000000000000000000000000000815260040161212591906125ea565b60405180910390fd5b505050565b60606000600161214284612201565b01905060008167ffffffffffffffff8111156121615761216061292d565b5b6040519080825280601f01601f1916602001820160405280156121935781602001600182028036833780820191505090505b509050600082602001820190505b6001156121f6578080600190039150507f3031323334353637383961626364656600000000000000000000000000000000600a86061a8153600a85816121ea576121e96136b1565b5b049450600085036121a1575b819350505050919050565b600080600090507a184f03e93ff9f4daa797ed6e38ed64bf6a1f010000000000000000831061225f577a184f03e93ff9f4daa797ed6e38ed64bf6a1f0100000000000000008381612255576122546136b1565b5b0492506040810190505b6d04ee2d6d415b85acef8100000000831061229c576d04ee2d6d415b85acef81000000008381612292576122916136b1565b5b0492506020810190505b662386f26fc1000083106122cb57662386f26fc1000083816122c1576122c06136b1565b5b0492506010810190505b6305f5e10083106122f4576305f5e10083816122ea576122e96136b1565b5b0492506008810190505b612710831061231957612710838161230f5761230e6136b1565b5b0492506004810190505b6064831061233c5760648381612332576123316136b1565b5b0492506002810190505b600a831061234b576001810190505b80915050919050565b604051806040016040528061236761238e565b8152602001606081525090565b604051806040016040528060008152602001606081525090565b6040518060600160405280600073ffffffffffffffffffffffffffffffffffffffff16815260200160008152602001600081525090565b6000604051905090565b600080fd5b600080fd5b60007fffffffff0000000000000000000000000000000000000000000000000000000082169050919050565b61240e816123d9565b811461241957600080fd5b50565b60008135905061242b81612405565b92915050565b600060208284031215612447576124466123cf565b5b60006124558482850161241c565b91505092915050565b60008115159050919050565b6124738161245e565b82525050565b600060208201905061248e600083018461246a565b92915050565b600081519050919050565b600082825260208201905092915050565b60005b838110156124ce5780820151818401526020810190506124b3565b60008484015250505050565b6000601f19601f8301169050919050565b60006124f682612494565b612500818561249f565b93506125108185602086016124b0565b612519816124da565b840191505092915050565b6000602082019050818103600083015261253e81846124eb565b905092915050565b6000819050919050565b61255981612546565b811461256457600080fd5b50565b60008135905061257681612550565b92915050565b600060208284031215612592576125916123cf565b5b60006125a084828501612567565b91505092915050565b600073ffffffffffffffffffffffffffffffffffffffff82169050919050565b60006125d4826125a9565b9050919050565b6125e4816125c9565b82525050565b60006020820190506125ff60008301846125db565b92915050565b61260e816125c9565b811461261957600080fd5b50565b60008135905061262b81612605565b92915050565b60008060408385031215612648576126476123cf565b5b60006126568582860161261c565b925050602061266785828601612567565b9150509250929050565b60008060006060848603121561268a576126896123cf565b5b60006126988682870161261c565b93505060206126a98682870161261c565b92505060406126ba86828701612567565b9150509250925092565b6126cd816125c9565b82525050565b6126dc81612546565b82525050565b6060820160008201516126f860008501826126c4565b50602082015161270b60208501826126d3565b50604082015161271e60408501826126d3565b50505050565b600081519050919050565b600082825260208201905092915050565b6000819050602082019050919050565b600082825260208201905092915050565b600061276c82612494565b6127768185612750565b93506127868185602086016124b0565b61278f816124da565b840191505092915050565b60006040830160008301516127b260008601826126d3565b50602083015184820360208601526127ca8282612761565b9150508091505092915050565b60006127e3838361279a565b905092915050565b6000602082019050919050565b600061280382612724565b61280d818561272f565b93508360208202850161281f85612740565b8060005b8581101561285b578484038952815161283c85826127d7565b9450612847836127eb565b925060208a01995050600181019050612823565b50829750879550505050505092915050565b600060808301600083015161288560008601826126e2565b506020830151848203606086015261289d82826127f8565b9150508091505092915050565b600060208201905081810360008301526128c4818461286d565b905092915050565b6000602082840312156128e2576128e16123cf565b5b60006128f08482850161261c565b91505092915050565b61290281612546565b82525050565b600060208201905061291d60008301846128f9565b92915050565b600080fd5b600080fd5b7f4e487b7100000000000000000000000000000000000000000000000000000000600052604160045260246000fd5b612965826124da565b810181811067ffffffffffffffff821117156129845761298361292d565b5b80604052505050565b60006129976123c5565b90506129a3828261295c565b919050565b600067ffffffffffffffff8211156129c3576129c261292d565b5b6129cc826124da565b9050602081019050919050565b82818337600083830152505050565b60006129fb6129f6846129a8565b61298d565b905082815260208101848484011115612a1757612a16612928565b5b612a228482856129d9565b509392505050565b600082601f830112612a3f57612a3e612923565b5b8135612a4f8482602086016129e8565b91505092915050565b60008060408385031215612a6f57612a6e6123cf565b5b600083013567ffffffffffffffff811115612a8d57612a8c6123d4565b5b612a9985828601612a2a565b9250506020612aaa8582860161261c565b9150509250929050565b600080600060608486031215612acd57612acc6123cf565b5b6000612adb86828701612567565b9350506020612aec8682870161261c565b925050604084013567ffffffffffffffff811115612b0d57612b0c6123d4565b5b612b1986828701612a2a565b9150509250925092565b6000606082019050612b3860008301866125db565b612b4560208301856128f9565b612b5260408301846128f9565b949350505050565b612b638161245e565b8114612b6e57600080fd5b50565b600081359050612b8081612b5a565b92915050565b60008060408385031215612b9d57612b9c6123cf565b5b6000612bab8582860161261c565b9250506020612bbc85828601612b71565b9150509250929050565b600067ffffffffffffffff821115612be157612be061292d565b5b612bea826124da565b9050602081019050919050565b6000612c0a612c0584612bc6565b61298d565b905082815260208101848484011115612c2657612c25612928565b5b612c318482856129d9565b509392505050565b600082601f830112612c4e57612c4d612923565b5b8135612c5e848260208601612bf7565b91505092915050565b60008060008060808587031215612c8157612c806123cf565b5b6000612c8f8782880161261c565b9450506020612ca08782880161261c565b9350506040612cb187828801612567565b925050606085013567ffffffffffffffff811115612cd257612cd16123d4565b5b612cde87828801612c39565b91505092959194509250565b60008060408385031215612d0157612d006123cf565b5b6000612d0f8582860161261c565b9250506020612d208582860161261c565b9150509250929050565b7f4e487b7100000000000000000000000000000000000000000000000000000000600052602260045260246000fd5b60006002820490506001821680612d7157607f821691505b602082108103612d8457612d83612d2a565b5b50919050565b6000819050919050565b612da5612da082612546565b612d8a565b82525050565b6000612db78284612d94565b60208201915081905092915050565b6000606082019050612ddb60008301866125db565b612de860208301856128f9565b612df560408301846125db565b949350505050565b7f50726f6475637420646f6573206e6f7420657869737400000000000000000000600082015250565b6000612e3360168361249f565b9150612e3e82612dfd565b602082019050919050565b60006020820190508181036000830152612e6281612e26565b9050919050565b612e72816125c9565b82525050565b6000612e848383612e69565b60208301905092915050565b612e9981612546565b82525050565b6000612eab8383612e90565b60208301905092915050565b600082016000820151612eca8482612e78565b9350506020820151612edc8482612e9f565b9350506040820151612eee8482612e9f565b935050505050565b6000612f028383612eb7565b60608301905092915050565b600081905092915050565b600081905092915050565b6000612f2f82612494565b612f398185612f19565b9350612f498185602086016124b0565b612f52816124da565b840191505092915050565b6000612f698383612f24565b905092915050565b60008083016000830151612f858582612e9f565b9450506020830151612f978582612f5d565b9450508391505092915050565b6000612fb08383612f71565b905092915050565b6000612fc382612724565b612fcd8185612f0e565b9350612fd883612740565b8060005b83811015613009578151612ff08882612fa4565b9750612ffb836127eb565b925050600181019050612fdc565b5085935050505092915050565b60006130228383612fb8565b905092915050565b6000808301600083015161303e8582612ef6565b94505060208301516130508582613016565b9450508391505092915050565b6000613069828461302a565b915081905092915050565b7f4e487b7100000000000000000000000000000000000000000000000000000000600052601160045260246000fd5b60006130ae82612546565b91507fffffffffffffffffffffffffffffffffffffffffffffffffffffffffffffffff82036130e0576130df613074565b5b600182019050919050565b7f546f6b656e20646f6573206e6f74206578697374000000000000000000000000600082015250565b600061312160148361249f565b915061312c826130eb565b602082019050919050565b6000602082019050818103600083015261315081613114565b9050919050565b7f4e6f7420746865206f776e6572206f662074686520746f6b656e000000000000600082015250565b600061318d601a8361249f565b915061319882613157565b602082019050919050565b600060208201905081810360008301526131bc81613180565b9050919050565b60008190508160005260206000209050919050565b60006020601f8301049050919050565b600082821b905092915050565b6000600883026132257fffffffffffffffffffffffffffffffffffffffffffffffffffffffffffffffff826131e8565b61322f86836131e8565b95508019841693508086168417925050509392505050565b6000819050919050565b600061326c61326761326284612546565b613247565b612546565b9050919050565b6000819050919050565b61328683613251565b61329a61329282613273565b8484546131f5565b825550505050565b600090565b6132af6132a2565b6132ba81848461327d565b505050565b5b818110156132de576132d36000826132a7565b6001810190506132c0565b5050565b601f821115613323576132f4816131c3565b6132fd846131d8565b8101602085101561330c578190505b613320613318856131d8565b8301826132bf565b50505b505050565b600082821c905092915050565b600061334660001984600802613328565b1980831691505092915050565b600061335f8383613335565b9150826002028217905092915050565b61337882612494565b67ffffffffffffffff8111156133915761339061292d565b5b61339b8254612d59565b6133a68282856132e2565b600060209050601f8311600181146133d957600084156133c7578287015190505b6133d18582613353565b865550613439565b601f1984166133e7866131c3565b60005b8281101561340f578489015182556001820191506020850194506020810190506133ea565b8683101561342c5784890151613428601f891682613335565b8355505b6001600288020188555050505b505050505050565b600060408301600083015161345960008601826126d3565b50602083015184820360208601526134718282612761565b9150508091505092915050565b600060208201905081810360008301526134988184613441565b905092915050565b60006134ab82612546565b91506134b683612546565b92508282026134c481612546565b915082820484148315176134db576134da613074565b5b5092915050565b7f4e487b7100000000000000000000000000000000000000000000000000000000600052603260045260246000fd5b600061351c82612546565b915061352783612546565b925082820190508082111561353f5761353e613074565b5b92915050565b600081519050919050565b600082825260208201905092915050565b600061356c82613545565b6135768185613550565b93506135868185602086016124b0565b61358f816124da565b840191505092915050565b60006080820190506135af60008301876125db565b6135bc60208301866125db565b6135c960408301856128f9565b81810360608301526135db8184613561565b905095945050505050565b6000815190506135f581612405565b92915050565b600060208284031215613611576136106123cf565b5b600061361f848285016135e6565b91505092915050565b600081905092915050565b600061363e82612494565b6136488185613628565b93506136588185602086016124b0565b80840191505092915050565b60006136708285613633565b915061367c8284613633565b91508190509392505050565b600060408201905061369d60008301856125db565b6136aa60208301846128f9565b9392505050565b7f4e487b7100000000000000000000000000000000000000000000000000000000600052601260045260246000fdfea2646970667358221220e3305e80411c762e408092c6df4b344f26027b3cc744d4fbeaa3867e4211e16764736f6c634300081c0033",
  "linkReferences": {},
  "deployedLinkReferences": {}
}