{
  "_format": "hh-sol-artifact-1",
  "contractName": "Prismia",
  "sourceName": "contracts/Prismia.sol",
  "abi": [
    {
      "inputs": [],
      "stateMutability": "nonpayable",
      "type": "constructor"
    },
    {
      "inputs": [
        {
          "internalType": "address",
          "name": "sender",
          "type": "address"
        },
        {
          "internalType": "uint256",
          "name": "tokenId",
          "type": "uint256"
        },
        {
          "internalType": "address",
          "name": "owner",
          "type": "address"
        }
      ],
      "name": "ERC721IncorrectOwner",
      "type": "error"
    },
    {
      "inputs": [
        {
          "internalType": "address",
          "name": "operator",
          "type": "address"
        },
        {
          "internalType": "uint256",
          "name": "tokenId",
          "type": "uint256"
        }
      ],
      "name": "ERC721InsufficientApproval",
      "type": "error"
    },
    {
      "inputs": [
        {
          "internalType": "address",
          "name": "approver",
          "type": "address"
        }
      ],
      "name": "ERC721InvalidApprover",
      "type": "error"
    },
    {
      "inputs": [
        {
          "internalType": "address",
          "name": "operator",
          "type": "address"
        }
      ],
      "name": "ERC721InvalidOperator",
      "type": "error"
    },
    {
      "inputs": [
        {
          "internalType": "address",
          "name": "owner",
          "type": "address"
        }
      ],
      "name": "ERC721InvalidOwner",
      "type": "error"
    },
    {
      "inputs": [
        {
          "internalType": "address",
          "name": "receiver",
          "type": "address"
        }
      ],
      "name": "ERC721InvalidReceiver",
      "type": "error"
    },
    {
      "inputs": [
        {
          "internalType": "address",
          "name": "sender",
          "type": "address"
        }
      ],
      "name": "ERC721InvalidSender",
      "type": "error"
    },
    {
      "inputs": [
        {
          "internalType": "uint256",
          "name": "tokenId",
          "type": "uint256"
        }
      ],
      "name": "ERC721NonexistentToken",
      "type": "error"
    },
    {
      "anonymous": false,
      "inputs": [
        {
          "indexed": true,
          "internalType": "address",
          "name": "owner",
          "type": "address"
        },
        {
          "indexed": true,
          "internalType": "address",
          "name": "approved",
          "type": "address"
        },
        {
          "indexed": true,
          "internalType": "uint256",
          "name": "tokenId",
          "type": "uint256"
        }
      ],
      "name": "Approval",
      "type": "event"
    },
    {
      "anonymous": false,
      "inputs": [
        {
          "indexed": true,
          "internalType": "address",
          "name": "owner",
          "type": "address"
        },
        {
          "indexed": true,
          "internalType": "address",
          "name": "operator",
          "type": "address"
        },
        {
          "indexed": false,
          "internalType": "bool",
          "name": "approved",
          "type": "bool"
        }
      ],
      "name": "ApprovalForAll",
      "type": "event"
    },
    {
      "anonymous": false,
      "inputs": [
        {
          "indexed": false,
          "internalType": "uint256",
          "name": "_fromTokenId",
          "type": "uint256"
        },
        {
          "indexed": false,
          "internalType": "uint256",
          "name": "_toTokenId",
          "type": "uint256"
        }
      ],
      "name": "BatchMetadataUpdate",
      "type": "event"
    },
    {
      "anonymous": false,
      "inputs": [
        {
          "indexed": false,
          "internalType": "uint256",
          "name": "_tokenId",
          "type": "uint256"
        }
      ],
      "name": "MetadataUpdate",
      "type": "event"
    },
    {
      "anonymous": false,
      "inputs": [
        {
          "indexed": true,
          "internalType": "string",
          "name": "productId",
          "type": "string"
        },
        {
          "components": [
            {
              "internalType": "uint256",
              "name": "timeStamp",
              "type": "uint256"
            },
            {
              "internalType": "string",
              "name": "uri",
              "type": "string"
            }
          ],
          "indexed": false,
          "internalType": "struct Prismia.ProductLifeCycle",
          "name": "newLifeCycle",
          "type": "tuple"
        }
      ],
      "name": "ProductLifeCycleUpdated",
      "type": "event"
    },
    {
      "anonymous": false,
      "inputs": [
        {
          "indexed": true,
          "internalType": "string",
          "name": "productId",
          "type": "string"
        },
        {
          "indexed": true,
          "internalType": "address",
          "name": "manufacturer",
          "type": "address"
        }
      ],
      "name": "ProductMinted",
      "type": "event"
    },
    {
      "anonymous": false,
      "inputs": [
        {
          "indexed": true,
          "internalType": "address",
          "name": "from",
          "type": "address"
        },
        {
          "indexed": true,
          "internalType": "address",
          "name": "to",
          "type": "address"
        },
        {
          "indexed": true,
          "internalType": "uint256",
          "name": "tokenId",
          "type": "uint256"
        }
      ],
      "name": "Transfer",
      "type": "event"
    },
    {
      "inputs": [
        {
          "internalType": "address",
          "name": "to",
          "type": "address"
        },
        {
          "internalType": "uint256",
          "name": "tokenId",
          "type": "uint256"
        }
      ],
      "name": "approve",
      "outputs": [],
      "stateMutability": "nonpayable",
      "type": "function"
    },
    {
      "inputs": [
        {
          "internalType": "address",
          "name": "owner",
          "type": "address"
        }
      ],
      "name": "balanceOf",
      "outputs": [
        {
          "internalType": "uint256",
          "name": "",
          "type": "uint256"
        }
      ],
      "stateMutability": "view",
      "type": "function"
    },
    {
      "inputs": [
        {
          "internalType": "uint256",
          "name": "tokenId",
          "type": "uint256"
        }
      ],
      "name": "getApproved",
      "outputs": [
        {
          "internalType": "address",
          "name": "",
          "type": "address"
        }
      ],
      "stateMutability": "view",
      "type": "function"
    },
    {
      "inputs": [
        {
          "internalType": "uint256",
          "name": "tokenId",
          "type": "uint256"
        }
      ],
      "name": "hashTokenId",
      "outputs": [
        {
          "internalType": "string",
          "name": "",
          "type": "string"
        }
      ],
      "stateMutability": "pure",
      "type": "function"
    },
    {
      "inputs": [
        {
          "internalType": "address",
          "name": "owner",
          "type": "address"
        },
        {
          "internalType": "address",
          "name": "operator",
          "type": "address"
        }
      ],
      "name": "isApprovedForAll",
      "outputs": [
        {
          "internalType": "bool",
          "name": "",
          "type": "bool"
        }
      ],
      "stateMutability": "view",
      "type": "function"
    },
    {
      "inputs": [
        {
          "internalType": "string",
          "name": "uri",
          "type": "string"
        },
        {
          "internalType": "address",
          "name": "to",
          "type": "address"
        }
      ],
      "name": "mintProduct",
      "outputs": [
        {
          "internalType": "string",
          "name": "",
          "type": "string"
        }
      ],
      "stateMutability": "nonpayable",
      "type": "function"
    },
    {
      "inputs": [],
      "name": "name",
      "outputs": [
        {
          "internalType": "string",
          "name": "",
          "type": "string"
        }
      ],
      "stateMutability": "view",
      "type": "function"
    },
    {
      "inputs": [
        {
          "internalType": "uint256",
          "name": "tokenId",
          "type": "uint256"
        }
      ],
      "name": "ownerOf",
      "outputs": [
        {
          "internalType": "address",
          "name": "",
          "type": "address"
        }
      ],
      "stateMutability": "view",
      "type": "function"
    },
    {
      "inputs": [
        {
          "internalType": "address",
          "name": "from",
          "type": "address"
        },
        {
          "internalType": "address",
          "name": "to",
          "type": "address"
        },
        {
          "internalType": "uint256",
          "name": "tokenId",
          "type": "uint256"
        }
      ],
      "name": "safeTransferFrom",
      "outputs": [],
      "stateMutability": "nonpayable",
      "type": "function"
    },
    {
      "inputs": [
        {
          "internalType": "address",
          "name": "from",
          "type": "address"
        },
        {
          "internalType": "address",
          "name": "to",
          "type": "address"
        },
        {
          "internalType": "uint256",
          "name": "tokenId",
          "type": "uint256"
        },
        {
          "internalType": "bytes",
          "name": "data",
          "type": "bytes"
        }
      ],
      "name": "safeTransferFrom",
      "outputs": [],
      "stateMutability": "nonpayable",
      "type": "function"
    },
    {
      "inputs": [
        {
          "internalType": "address",
          "name": "operator",
          "type": "address"
        },
        {
          "internalType": "bool",
          "name": "approved",
          "type": "bool"
        }
      ],
      "name": "setApprovalForAll",
      "outputs": [],
      "stateMutability": "nonpayable",
      "type": "function"
    },
    {
      "inputs": [
        {
          "internalType": "bytes4",
          "name": "interfaceId",
          "type": "bytes4"
        }
      ],
      "name": "supportsInterface",
      "outputs": [
        {
          "internalType": "bool",
          "name": "",
          "type": "bool"
        }
      ],
      "stateMutability": "view",
      "type": "function"
    },
    {
      "inputs": [],
      "name": "symbol",
      "outputs": [
        {
          "internalType": "string",
          "name": "",
          "type": "string"
        }
      ],
      "stateMutability": "view",
      "type": "function"
    },
    {
      "inputs": [
        {
          "internalType": "uint256",
          "name": "tokenId",
          "type": "uint256"
        }
      ],
      "name": "tokenURI",
      "outputs": [
        {
          "internalType": "string",
          "name": "",
          "type": "string"
        }
      ],
      "stateMutability": "view",
      "type": "function"
    },
    {
      "inputs": [
        {
          "internalType": "address",
          "name": "from",
          "type": "address"
        },
        {
          "internalType": "address",
          "name": "to",
          "type": "address"
        },
        {
          "internalType": "uint256",
          "name": "tokenId",
          "type": "uint256"
        }
      ],
      "name": "transferFrom",
      "outputs": [],
      "stateMutability": "nonpayable",
      "type": "function"
    },
    {
      "inputs": [
        {
          "internalType": "string",
          "name": "productId",
          "type": "string"
        },
        {
          "internalType": "address",
          "name": "to",
          "type": "address"
        },
        {
          "internalType": "string",
          "name": "uri",
          "type": "string"
        }
      ],
      "name": "updateProductLifeCycle",
      "outputs": [],
      "stateMutability": "nonpayable",
      "type": "function"
    },
    {
      "inputs": [
        {
          "internalType": "string",
          "name": "productId",
          "type": "string"
        }
      ],
      "name": "verifyProduct",
      "outputs": [
        {
          "components": [
            {
              "components": [
                {
                  "internalType": "address",
                  "name": "manufacturer",
                  "type": "address"
                },
                {
                  "internalType": "uint256",
                  "name": "timeStamp",
                  "type": "uint256"
                },
                {
                  "internalType": "uint256",
                  "name": "tokenId",
                  "type": "uint256"
                }
              ],
              "internalType": "struct Prismia.Product",
              "name": "product",
              "type": "tuple"
            },
            {
              "components": [
                {
                  "internalType": "uint256",
                  "name": "timeStamp",
                  "type": "uint256"
                },
                {
                  "internalType": "string",
                  "name": "uri",
                  "type": "string"
                }
              ],
              "internalType": "struct Prismia.ProductLifeCycle[]",
              "name": "lifeCycle",
              "type": "tuple[]"
            }
          ],
          "internalType": "struct Prismia.ProductResponse",
          "name": "",
          "type": "tuple"
        }
      ],
      "stateMutability": "view",
      "type": "function"
    }
  ],
  "bytecode": "0x608060405234801561001057600080fd5b506040518060400160405280600781526020017f507269736d6961000000000000000000000000000000000000000000000000008152506040518060400160405280600381526020017f4450500000000000000000000000000000000000000000000000000000000000815250816000908161008c91906102f4565b50806001908161009c91906102f4565b5050506103c6565b600081519050919050565b7f4e487b7100000000000000000000000000000000000000000000000000000000600052604160045260246000fd5b7f4e487b7100000000000000000000000000000000000000000000000000000000600052602260045260246000fd5b6000600282049050600182168061012557607f821691505b602082108103610138576101376100de565b5b50919050565b60008190508160005260206000209050919050565b60006020601f8301049050919050565b600082821b905092915050565b6000600883026101a07fffffffffffffffffffffffffffffffffffffffffffffffffffffffffffffffff82610163565b6101aa8683610163565b95508019841693508086168417925050509392505050565b6000819050919050565b6000819050919050565b60006101f16101ec6101e7846101c2565b6101cc565b6101c2565b9050919050565b6000819050919050565b61020b836101d6565b61021f610217826101f8565b848454610170565b825550505050565b600090565b610234610227565b61023f818484610202565b505050565b5b818110156102635761025860008261022c565b600181019050610245565b5050565b601f8211156102a8576102798161013e565b61028284610153565b81016020851015610291578190505b6102a561029d85610153565b830182610244565b50505b505050565b600082821c905092915050565b60006102cb600019846008026102ad565b1980831691505092915050565b60006102e483836102ba565b9150826002028217905092915050565b6102fd826100a4565b67ffffffffffffffff811115610316576103156100af565b5b610320825461010d565b61032b828285610267565b600060209050601f83116001811461035e576000841561034c578287015190505b61035685826102d8565b8655506103be565b601f19841661036c8661013e565b60005b828110156103945784890151825560018201915060208501945060208101905061036f565b868310156103b157848901516103ad601f8916826102ba565b8355505b6001600288020188555050505b505050505050565b61332e806103d56000396000f3fe608060405234801561001057600080fd5b506004361061010b5760003560e01c80636352211e116100a257806395d89b411161007157806395d89b41146102ee578063a22cb4651461030c578063b88d4fde14610328578063c87b56dd14610344578063e985e9c5146103745761010b565b80636352211e1461022e57806370a082311461025e57806376d5523e1461028e57806392efc453146102be5761010b565b8063095ea7b3116100de578063095ea7b3146101be57806323b872dd146101da5780633865bc68146101f657806342842e0e146102125761010b565b806301ffc9a71461011057806306fdde0314610140578063081812fc1461015e578063081e14ca1461018e575b600080fd5b61012a6004803603810190610125919061227b565b6103a4565b60405161013791906122c3565b60405180910390f35b6101486103b6565b604051610155919061236e565b60405180910390f35b610178600480360381019061017391906123c6565b610448565b6040516101859190612434565b60405180910390f35b6101a860048036038101906101a391906123c6565b610464565b6040516101b5919061236e565b60405180910390f35b6101d860048036038101906101d3919061247b565b6104aa565b005b6101f460048036038101906101ef91906124bb565b6104c0565b005b610210600480360381019061020b9190612643565b6105c2565b005b61022c600480360381019061022791906124bb565b610826565b005b610248600480360381019061024391906123c6565b610846565b6040516102559190612434565b60405180910390f35b610278600480360381019061027391906126ce565b610858565b604051610285919061270a565b60405180910390f35b6102a860048036038101906102a39190612725565b610912565b6040516102b5919061236e565b60405180910390f35b6102d860048036038101906102d39190612781565b610a67565b6040516102e591906129b0565b60405180910390f35b6102f6610c38565b604051610303919061236e565b60405180910390f35b610326600480360381019061032191906129fe565b610cca565b005b610342600480360381019061033d9190612adf565b610ce0565b005b61035e600480360381019061035991906123c6565b610d05565b60405161036b919061236e565b60405180910390f35b61038e60048036038101906103899190612b62565b610d17565b60405161039b91906122c3565b60405180910390f35b60006103af82610dab565b9050919050565b6060600080546103c590612bd1565b80601f01602080910402602001604051908101604052809291908181526020018280546103f190612bd1565b801561043e5780601f106104135761010080835404028352916020019161043e565b820191906000526020600020905b81548152906001019060200180831161042157829003601f168201915b5050505050905090565b600061045382610e0c565b5061045d82610e94565b9050919050565b60606000826040516020016104799190612c23565b604051602081830303815290604052805190602001209050600061049e82600a610ed1565b90508092505050919050565b6104bc82826104b76110d9565b6110e1565b5050565b600073ffffffffffffffffffffffffffffffffffffffff168273ffffffffffffffffffffffffffffffffffffffff16036105325760006040517f64a0ae920000000000000000000000000000000000000000000000000000000081526004016105299190612434565b60405180910390fd5b600061054683836105416110d9565b6110f3565b90508373ffffffffffffffffffffffffffffffffffffffff168173ffffffffffffffffffffffffffffffffffffffff16146105bc578382826040517f64283d7b0000000000000000000000000000000000000000000000000000000081526004016105b393929190612c3e565b60405180910390fd5b50505050565b60006008846040516105d49190612cb1565b9081526020016040518091039020600201549050600073ffffffffffffffffffffffffffffffffffffffff166106098261130d565b73ffffffffffffffffffffffffffffffffffffffff160361065f576040517f08c379a000000000000000000000000000000000000000000000000000000000815260040161065690612d14565b60405180910390fd5b3373ffffffffffffffffffffffffffffffffffffffff1661067f8261130d565b73ffffffffffffffffffffffffffffffffffffffff16146106d5576040517f08c379a00000000000000000000000000000000000000000000000000000000081526004016106cc90612d80565b60405180910390fd5b600060405180604001604052804281526020018481525090506009856040516106fe9190612cb1565b90815260200160405180910390208190806001815401808255809150506001900390600052602060002090600202016000909190919091506000820151816000015560208201518160010190816107559190612f4c565b505050600073ffffffffffffffffffffffffffffffffffffffff168473ffffffffffffffffffffffffffffffffffffffff16141580156107c157503373ffffffffffffffffffffffffffffffffffffffff168473ffffffffffffffffffffffffffffffffffffffff1614155b156107d2576107d133858461134a565b5b846040516107e09190612cb1565b60405180910390207f8e5ac31b3280e43c98c155b2d6be5e7d717fd5f6e859b74483f34994a1529e3e82604051610817919061305b565b60405180910390a25050505050565b61084183838360405180602001604052806000815250610ce0565b505050565b600061085182610e0c565b9050919050565b60008073ffffffffffffffffffffffffffffffffffffffff168273ffffffffffffffffffffffffffffffffffffffff16036108cb5760006040517f89c62b640000000000000000000000000000000000000000000000000000000081526004016108c29190612434565b60405180910390fd5b600360008373ffffffffffffffffffffffffffffffffffffffff1673ffffffffffffffffffffffffffffffffffffffff168152602001908152602001600020549050919050565b6060600060076000815480929190610929906130ac565b91905055905061093983826114b7565b61094381856114d5565b600060405180606001604052803373ffffffffffffffffffffffffffffffffffffffff168152602001428152602001838152509050600061098383610464565b9050816008826040516109969190612cb1565b908152602001604051809103902060008201518160000160006101000a81548173ffffffffffffffffffffffffffffffffffffffff021916908373ffffffffffffffffffffffffffffffffffffffff16021790555060208201518160010155604082015181600201559050503373ffffffffffffffffffffffffffffffffffffffff1681604051610a279190612cb1565b60405180910390207fa6e02671c63cbf41b7c64ef44f824c4aace0e16529f9c1a9c1ffd3822ab568a860405160405180910390a380935050505092915050565b610a6f6121b8565b6000600883604051610a819190612cb1565b90815260200160405180910390206040518060600160405290816000820160009054906101000a900473ffffffffffffffffffffffffffffffffffffffff1673ffffffffffffffffffffffffffffffffffffffff1673ffffffffffffffffffffffffffffffffffffffff1681526020016001820154815260200160028201548152505090506000600984604051610b189190612cb1565b9081526020016040518091039020805480602002602001604051908101604052809291908181526020016000905b82821015610c14578382906000526020600020906002020160405180604001604052908160008201548152602001600182018054610b8390612bd1565b80601f0160208091040260200160405190810160405280929190818152602001828054610baf90612bd1565b8015610bfc5780601f10610bd157610100808354040283529160200191610bfc565b820191906000526020600020905b815481529060010190602001808311610bdf57829003601f168201915b50505050508152505081526020019060010190610b46565b50505050905060405180604001604052808381526020018281525092505050919050565b606060018054610c4790612bd1565b80601f0160208091040260200160405190810160405280929190818152602001828054610c7390612bd1565b8015610cc05780601f10610c9557610100808354040283529160200191610cc0565b820191906000526020600020905b815481529060010190602001808311610ca357829003601f168201915b5050505050905090565b610cdc610cd56110d9565b8383611531565b5050565b610ceb8484846104c0565b610cff610cf66110d9565b858585856116a0565b50505050565b6060610d1082611851565b9050919050565b6000600560008473ffffffffffffffffffffffffffffffffffffffff1673ffffffffffffffffffffffffffffffffffffffff16815260200190815260200160002060008373ffffffffffffffffffffffffffffffffffffffff1673ffffffffffffffffffffffffffffffffffffffff16815260200190815260200160002060009054906101000a900460ff16905092915050565b6000634906490660e01b7bffffffffffffffffffffffffffffffffffffffffffffffffffffffff1916827bffffffffffffffffffffffffffffffffffffffffffffffffffffffff19161480610e055750610e0482611964565b5b9050919050565b600080610e188361130d565b9050600073ffffffffffffffffffffffffffffffffffffffff168173ffffffffffffffffffffffffffffffffffffffff1603610e8b57826040517f7e273289000000000000000000000000000000000000000000000000000000008152600401610e82919061270a565b60405180910390fd5b80915050919050565b60006004600083815260200190815260200160002060009054906101000a900473ffffffffffffffffffffffffffffffffffffffff169050919050565b606060006040518060400160405280601081526020017f303132333435363738396162636465660000000000000000000000000000000081525090506000600284610f1c91906130f4565b67ffffffffffffffff811115610f3557610f34612518565b5b6040519080825280601f01601f191660200182016040528015610f675781602001600182028036833780820191505090505b50905060005b848110156110cd5782600f6004888460208110610f8d57610f8c613136565b5b1a60f81b7effffffffffffffffffffffffffffffffffffffffffffffffffffffffffffff1916901c60f81c1660ff1681518110610fcd57610fcc613136565b5b602001015160f81c60f81b82600283610fe691906130f4565b81518110610ff757610ff6613136565b5b60200101907effffffffffffffffffffffffffffffffffffffffffffffffffffffffffffff1916908160001a90535082600f60f81b87836020811061103f5761103e613136565b5b1a60f81b1660f81c60ff168151811061105b5761105a613136565b5b602001015160f81c60f81b8260028361107491906130f4565b60016110809190613165565b8151811061109157611090613136565b5b60200101907effffffffffffffffffffffffffffffffffffffffffffffffffffffffffffff1916908160001a9053508080600101915050610f6d565b50809250505092915050565b600033905090565b6110ee8383836001611a46565b505050565b6000806110ff8461130d565b9050600073ffffffffffffffffffffffffffffffffffffffff168373ffffffffffffffffffffffffffffffffffffffff161461114157611140818486611c0b565b5b600073ffffffffffffffffffffffffffffffffffffffff168173ffffffffffffffffffffffffffffffffffffffff16146111d257611183600085600080611a46565b6001600360008373ffffffffffffffffffffffffffffffffffffffff1673ffffffffffffffffffffffffffffffffffffffff168152602001908152602001600020600082825403925050819055505b600073ffffffffffffffffffffffffffffffffffffffff168573ffffffffffffffffffffffffffffffffffffffff1614611255576001600360008773ffffffffffffffffffffffffffffffffffffffff1673ffffffffffffffffffffffffffffffffffffffff168152602001908152602001600020600082825401925050819055505b846002600086815260200190815260200160002060006101000a81548173ffffffffffffffffffffffffffffffffffffffff021916908373ffffffffffffffffffffffffffffffffffffffff160217905550838573ffffffffffffffffffffffffffffffffffffffff168273ffffffffffffffffffffffffffffffffffffffff167fddf252ad1be2c89b69c2b068fc378daa952ba7f163c4a11628f55a4df523b3ef60405160405180910390a4809150509392505050565b60006002600083815260200190815260200160002060009054906101000a900473ffffffffffffffffffffffffffffffffffffffff169050919050565b600073ffffffffffffffffffffffffffffffffffffffff168273ffffffffffffffffffffffffffffffffffffffff16036113bc5760006040517f64a0ae920000000000000000000000000000000000000000000000000000000081526004016113b39190612434565b60405180910390fd5b60006113ca838360006110f3565b9050600073ffffffffffffffffffffffffffffffffffffffff168173ffffffffffffffffffffffffffffffffffffffff160361143d57816040517f7e273289000000000000000000000000000000000000000000000000000000008152600401611434919061270a565b60405180910390fd5b8373ffffffffffffffffffffffffffffffffffffffff168173ffffffffffffffffffffffffffffffffffffffff16146114b1578382826040517f64283d7b0000000000000000000000000000000000000000000000000000000081526004016114a893929190612c3e565b60405180910390fd5b50505050565b6114d1828260405180602001604052806000815250611ccf565b5050565b806006600084815260200190815260200160002090816114f59190612f4c565b507ff8e1a15aba9398e019f0b49df1a4fde98ee17ae345cb5f6b5e2c27f5033e8ce782604051611525919061270a565b60405180910390a15050565b600073ffffffffffffffffffffffffffffffffffffffff168273ffffffffffffffffffffffffffffffffffffffff16036115a257816040517f5b08ba180000000000000000000000000000000000000000000000000000000081526004016115999190612434565b60405180910390fd5b80600560008573ffffffffffffffffffffffffffffffffffffffff1673ffffffffffffffffffffffffffffffffffffffff16815260200190815260200160002060008473ffffffffffffffffffffffffffffffffffffffff1673ffffffffffffffffffffffffffffffffffffffff16815260200190815260200160002060006101000a81548160ff0219169083151502179055508173ffffffffffffffffffffffffffffffffffffffff168373ffffffffffffffffffffffffffffffffffffffff167f17307eab39ab6107e8899845ad3d59bd9653f200f220920489ca2b5937696c318360405161169391906122c3565b60405180910390a3505050565b60008373ffffffffffffffffffffffffffffffffffffffff163b111561184a578273ffffffffffffffffffffffffffffffffffffffff1663150b7a02868685856040518563ffffffff1660e01b81526004016116ff94939291906131ee565b6020604051808303816000875af192505050801561173b57506040513d601f19601f82011682018060405250810190611738919061324f565b60015b6117bf573d806000811461176b576040519150601f19603f3d011682016040523d82523d6000602084013e611770565b606091505b5060008151036117b757836040517f64a0ae920000000000000000000000000000000000000000000000000000000081526004016117ae9190612434565b60405180910390fd5b805181602001fd5b63150b7a0260e01b7bffffffffffffffffffffffffffffffffffffffffffffffffffffffff1916817bffffffffffffffffffffffffffffffffffffffffffffffffffffffff19161461184857836040517f64a0ae9200000000000000000000000000000000000000000000000000000000815260040161183f9190612434565b60405180910390fd5b505b5050505050565b606061185c82610e0c565b50600060066000848152602001908152602001600020805461187d90612bd1565b80601f01602080910402602001604051908101604052809291908181526020018280546118a990612bd1565b80156118f65780601f106118cb576101008083540402835291602001916118f6565b820191906000526020600020905b8154815290600101906020018083116118d957829003601f168201915b505050505090506000611907611cf3565b9050600081510361191c57819250505061195f565b60008251111561195157808260405160200161193992919061327c565b6040516020818303038152906040529250505061195f565b61195a84611d0a565b925050505b919050565b60007f80ac58cd000000000000000000000000000000000000000000000000000000007bffffffffffffffffffffffffffffffffffffffffffffffffffffffff1916827bffffffffffffffffffffffffffffffffffffffffffffffffffffffff19161480611a2f57507f5b5e139f000000000000000000000000000000000000000000000000000000007bffffffffffffffffffffffffffffffffffffffffffffffffffffffff1916827bffffffffffffffffffffffffffffffffffffffffffffffffffffffff1916145b80611a3f5750611a3e82611d73565b5b9050919050565b8080611a7f5750600073ffffffffffffffffffffffffffffffffffffffff168273ffffffffffffffffffffffffffffffffffffffff1614155b15611bb3576000611a8f84610e0c565b9050600073ffffffffffffffffffffffffffffffffffffffff168373ffffffffffffffffffffffffffffffffffffffff1614158015611afa57508273ffffffffffffffffffffffffffffffffffffffff168173ffffffffffffffffffffffffffffffffffffffff1614155b8015611b0d5750611b0b8184610d17565b155b15611b4f57826040517fa9fbf51f000000000000000000000000000000000000000000000000000000008152600401611b469190612434565b60405180910390fd5b8115611bb157838573ffffffffffffffffffffffffffffffffffffffff168273ffffffffffffffffffffffffffffffffffffffff167f8c5be1e5ebec7d5bd14f71427d1e84f3dd0314c0f7b2291e5b200ac8c7c3b92560405160405180910390a45b505b836004600085815260200190815260200160002060006101000a81548173ffffffffffffffffffffffffffffffffffffffff021916908373ffffffffffffffffffffffffffffffffffffffff16021790555050505050565b611c16838383611ddd565b611cca57600073ffffffffffffffffffffffffffffffffffffffff168373ffffffffffffffffffffffffffffffffffffffff1603611c8b57806040517f7e273289000000000000000000000000000000000000000000000000000000008152600401611c82919061270a565b60405180910390fd5b81816040517f177e802f000000000000000000000000000000000000000000000000000000008152600401611cc19291906132a0565b60405180910390fd5b505050565b611cd98383611e9e565b611cee611ce46110d9565b60008585856116a0565b505050565b606060405180602001604052806000815250905090565b6060611d1582610e0c565b506000611d20611cf3565b90506000815111611d405760405180602001604052806000815250611d6b565b80611d4a84611f97565b604051602001611d5b92919061327c565b6040516020818303038152906040525b915050919050565b60007f01ffc9a7000000000000000000000000000000000000000000000000000000007bffffffffffffffffffffffffffffffffffffffffffffffffffffffff1916827bffffffffffffffffffffffffffffffffffffffffffffffffffffffff1916149050919050565b60008073ffffffffffffffffffffffffffffffffffffffff168373ffffffffffffffffffffffffffffffffffffffff1614158015611e9557508273ffffffffffffffffffffffffffffffffffffffff168473ffffffffffffffffffffffffffffffffffffffff161480611e565750611e558484610d17565b5b80611e9457508273ffffffffffffffffffffffffffffffffffffffff16611e7c83610e94565b73ffffffffffffffffffffffffffffffffffffffff16145b5b90509392505050565b600073ffffffffffffffffffffffffffffffffffffffff168273ffffffffffffffffffffffffffffffffffffffff1603611f105760006040517f64a0ae92000000000000000000000000000000000000000000000000000000008152600401611f079190612434565b60405180910390fd5b6000611f1e838360006110f3565b9050600073ffffffffffffffffffffffffffffffffffffffff168173ffffffffffffffffffffffffffffffffffffffff1614611f925760006040517f73c6ac6e000000000000000000000000000000000000000000000000000000008152600401611f899190612434565b60405180910390fd5b505050565b606060006001611fa684612065565b01905060008167ffffffffffffffff811115611fc557611fc4612518565b5b6040519080825280601f01601f191660200182016040528015611ff75781602001600182028036833780820191505090505b509050600082602001820190505b60011561205a578080600190039150507f3031323334353637383961626364656600000000000000000000000000000000600a86061a8153600a858161204e5761204d6132c9565b5b04945060008503612005575b819350505050919050565b600080600090507a184f03e93ff9f4daa797ed6e38ed64bf6a1f01000000000000000083106120c3577a184f03e93ff9f4daa797ed6e38ed64bf6a1f01000000000000000083816120b9576120b86132c9565b5b0492506040810190505b6d04ee2d6d415b85acef81000000008310612100576d04ee2d6d415b85acef810000000083816120f6576120f56132c9565b5b0492506020810190505b662386f26fc10000831061212f57662386f26fc100008381612125576121246132c9565b5b0492506010810190505b6305f5e1008310612158576305f5e100838161214e5761214d6132c9565b5b0492506008810190505b612710831061217d576127108381612173576121726132c9565b5b0492506004810190505b606483106121a05760648381612196576121956132c9565b5b0492506002810190505b600a83106121af576001810190505b80915050919050565b60405180604001604052806121cb6121d8565b8152602001606081525090565b6040518060600160405280600073ffffffffffffffffffffffffffffffffffffffff16815260200160008152602001600081525090565b6000604051905090565b600080fd5b600080fd5b60007fffffffff0000000000000000000000000000000000000000000000000000000082169050919050565b61225881612223565b811461226357600080fd5b50565b6000813590506122758161224f565b92915050565b60006020828403121561229157612290612219565b5b600061229f84828501612266565b91505092915050565b60008115159050919050565b6122bd816122a8565b82525050565b60006020820190506122d860008301846122b4565b92915050565b600081519050919050565b600082825260208201905092915050565b60005b838110156123185780820151818401526020810190506122fd565b60008484015250505050565b6000601f19601f8301169050919050565b6000612340826122de565b61234a81856122e9565b935061235a8185602086016122fa565b61236381612324565b840191505092915050565b600060208201905081810360008301526123888184612335565b905092915050565b6000819050919050565b6123a381612390565b81146123ae57600080fd5b50565b6000813590506123c08161239a565b92915050565b6000602082840312156123dc576123db612219565b5b60006123ea848285016123b1565b91505092915050565b600073ffffffffffffffffffffffffffffffffffffffff82169050919050565b600061241e826123f3565b9050919050565b61242e81612413565b82525050565b60006020820190506124496000830184612425565b92915050565b61245881612413565b811461246357600080fd5b50565b6000813590506124758161244f565b92915050565b6000806040838503121561249257612491612219565b5b60006124a085828601612466565b92505060206124b1858286016123b1565b9150509250929050565b6000806000606084860312156124d4576124d3612219565b5b60006124e286828701612466565b93505060206124f386828701612466565b9250506040612504868287016123b1565b9150509250925092565b600080fd5b600080fd5b7f4e487b7100000000000000000000000000000000000000000000000000000000600052604160045260246000fd5b61255082612324565b810181811067ffffffffffffffff8211171561256f5761256e612518565b5b80604052505050565b600061258261220f565b905061258e8282612547565b919050565b600067ffffffffffffffff8211156125ae576125ad612518565b5b6125b782612324565b9050602081019050919050565b82818337600083830152505050565b60006125e66125e184612593565b612578565b90508281526020810184848401111561260257612601612513565b5b61260d8482856125c4565b509392505050565b600082601f83011261262a5761262961250e565b5b813561263a8482602086016125d3565b91505092915050565b60008060006060848603121561265c5761265b612219565b5b600084013567ffffffffffffffff81111561267a5761267961221e565b5b61268686828701612615565b935050602061269786828701612466565b925050604084013567ffffffffffffffff8111156126b8576126b761221e565b5b6126c486828701612615565b9150509250925092565b6000602082840312156126e4576126e3612219565b5b60006126f284828501612466565b91505092915050565b61270481612390565b82525050565b600060208201905061271f60008301846126fb565b92915050565b6000806040838503121561273c5761273b612219565b5b600083013567ffffffffffffffff81111561275a5761275961221e565b5b61276685828601612615565b925050602061277785828601612466565b9150509250929050565b60006020828403121561279757612796612219565b5b600082013567ffffffffffffffff8111156127b5576127b461221e565b5b6127c184828501612615565b91505092915050565b6127d381612413565b82525050565b6127e281612390565b82525050565b6060820160008201516127fe60008501826127ca565b50602082015161281160208501826127d9565b50604082015161282460408501826127d9565b50505050565b600081519050919050565b600082825260208201905092915050565b6000819050602082019050919050565b600082825260208201905092915050565b6000612872826122de565b61287c8185612856565b935061288c8185602086016122fa565b61289581612324565b840191505092915050565b60006040830160008301516128b860008601826127d9565b50602083015184820360208601526128d08282612867565b9150508091505092915050565b60006128e983836128a0565b905092915050565b6000602082019050919050565b60006129098261282a565b6129138185612835565b93508360208202850161292585612846565b8060005b85811015612961578484038952815161294285826128dd565b945061294d836128f1565b925060208a01995050600181019050612929565b50829750879550505050505092915050565b600060808301600083015161298b60008601826127e8565b50602083015184820360608601526129a382826128fe565b9150508091505092915050565b600060208201905081810360008301526129ca8184612973565b905092915050565b6129db816122a8565b81146129e657600080fd5b50565b6000813590506129f8816129d2565b92915050565b60008060408385031215612a1557612a14612219565b5b6000612a2385828601612466565b9250506020612a34858286016129e9565b9150509250929050565b600067ffffffffffffffff821115612a5957612a58612518565b5b612a6282612324565b9050602081019050919050565b6000612a82612a7d84612a3e565b612578565b905082815260208101848484011115612a9e57612a9d612513565b5b612aa98482856125c4565b509392505050565b600082601f830112612ac657612ac561250e565b5b8135612ad6848260208601612a6f565b91505092915050565b60008060008060808587031215612af957612af8612219565b5b6000612b0787828801612466565b9450506020612b1887828801612466565b9350506040612b29878288016123b1565b925050606085013567ffffffffffffffff811115612b4a57612b4961221e565b5b612b5687828801612ab1565b91505092959194509250565b60008060408385031215612b7957612b78612219565b5b6000612b8785828601612466565b9250506020612b9885828601612466565b9150509250929050565b7f4e487b7100000000000000000000000000000000000000000000000000000000600052602260045260246000fd5b60006002820490506001821680612be957607f821691505b602082108103612bfc57612bfb612ba2565b5b50919050565b6000819050919050565b612c1d612c1882612390565b612c02565b82525050565b6000612c2f8284612c0c565b60208201915081905092915050565b6000606082019050612c536000830186612425565b612c6060208301856126fb565b612c6d6040830184612425565b949350505050565b600081905092915050565b6000612c8b826122de565b612c958185612c75565b9350612ca58185602086016122fa565b80840191505092915050565b6000612cbd8284612c80565b915081905092915050565b7f546f6b656e20646f6573206e6f74206578697374000000000000000000000000600082015250565b6000612cfe6014836122e9565b9150612d0982612cc8565b602082019050919050565b60006020820190508181036000830152612d2d81612cf1565b9050919050565b7f4e6f7420746865206f776e6572206f662074686520746f6b656e000000000000600082015250565b6000612d6a601a836122e9565b9150612d7582612d34565b602082019050919050565b60006020820190508181036000830152612d9981612d5d565b9050919050565b60008190508160005260206000209050919050565b60006020601f8301049050919050565b600082821b905092915050565b600060088302612e027fffffffffffffffffffffffffffffffffffffffffffffffffffffffffffffffff82612dc5565b612e0c8683612dc5565b95508019841693508086168417925050509392505050565b6000819050919050565b6000612e49612e44612e3f84612390565b612e24565b612390565b9050919050565b6000819050919050565b612e6383612e2e565b612e77612e6f82612e50565b848454612dd2565b825550505050565b600090565b612e8c612e7f565b612e97818484612e5a565b505050565b5b81811015612ebb57612eb0600082612e84565b600181019050612e9d565b5050565b601f821115612f0057612ed181612da0565b612eda84612db5565b81016020851015612ee9578190505b612efd612ef585612db5565b830182612e9c565b50505b505050565b600082821c905092915050565b6000612f2360001984600802612f05565b1980831691505092915050565b6000612f3c8383612f12565b9150826002028217905092915050565b612f55826122de565b67ffffffffffffffff811115612f6e57612f6d612518565b5b612f788254612bd1565b612f83828285612ebf565b600060209050601f831160018114612fb65760008415612fa4578287015190505b612fae8582612f30565b865550613016565b601f198416612fc486612da0565b60005b82811015612fec57848901518255600182019150602085019450602081019050612fc7565b868310156130095784890151613005601f891682612f12565b8355505b6001600288020188555050505b505050505050565b600060408301600083015161303660008601826127d9565b506020830151848203602086015261304e8282612867565b9150508091505092915050565b60006020820190508181036000830152613075818461301e565b905092915050565b7f4e487b7100000000000000000000000000000000000000000000000000000000600052601160045260246000fd5b60006130b782612390565b91507fffffffffffffffffffffffffffffffffffffffffffffffffffffffffffffffff82036130e9576130e861307d565b5b600182019050919050565b60006130ff82612390565b915061310a83612390565b925082820261311881612390565b9150828204841483151761312f5761312e61307d565b5b5092915050565b7f4e487b7100000000000000000000000000000000000000000000000000000000600052603260045260246000fd5b600061317082612390565b915061317b83612390565b92508282019050808211156131935761319261307d565b5b92915050565b600081519050919050565b600082825260208201905092915050565b60006131c082613199565b6131ca81856131a4565b93506131da8185602086016122fa565b6131e381612324565b840191505092915050565b60006080820190506132036000830187612425565b6132106020830186612425565b61321d60408301856126fb565b818103606083015261322f81846131b5565b905095945050505050565b6000815190506132498161224f565b92915050565b60006020828403121561326557613264612219565b5b60006132738482850161323a565b91505092915050565b60006132888285612c80565b91506132948284612c80565b91508190509392505050565b60006040820190506132b56000830185612425565b6132c260208301846126fb565b9392505050565b7f4e487b7100000000000000000000000000000000000000000000000000000000600052601260045260246000fdfea2646970667358221220ee04390d75864353aca3fe26b28e49f8711b3008906fe16284d32bea2ce4b23264736f6c634300081c0033",
  "linkReferences": {},
  "deployedLinkReferences": {}
}