{
  "_format": "hh-sol-artifact-1",
  "contractName": "Prismia",
  "sourceName": "contracts/Prismia.sol",
  "abi": [
    {
      "inputs": [
        {
          "internalType": "address",
          "name": "defaultAdmin",
          "type": "address"
        },
        {
          "internalType": "address",
          "name": "minter",
          "type": "address"
        }
      ],
      "stateMutability": "nonpayable",
      "type": "constructor"
    },
    {
      "inputs": [],
      "name": "AccessControlBadConfirmation",
      "type": "error"
    },
    {
      "inputs": [
        {
          "internalType": "address",
          "name": "account",
          "type": "address"
        },
        {
          "internalType": "bytes32",
          "name": "neededRole",
          "type": "bytes32"
        }
      ],
      "name": "AccessControlUnauthorizedAccount",
      "type": "error"
    },
    {
      "inputs": [
        {
          "internalType": "address",
          "name": "sender",
          "type": "address"
        },
        {
          "internalType": "uint256",
          "name": "tokenId",
          "type": "uint256"
        },
        {
          "internalType": "address",
          "name": "owner",
          "type": "address"
        }
      ],
      "name": "ERC721IncorrectOwner",
      "type": "error"
    },
    {
      "inputs": [
        {
          "internalType": "address",
          "name": "operator",
          "type": "address"
        },
        {
          "internalType": "uint256",
          "name": "tokenId",
          "type": "uint256"
        }
      ],
      "name": "ERC721InsufficientApproval",
      "type": "error"
    },
    {
      "inputs": [
        {
          "internalType": "address",
          "name": "approver",
          "type": "address"
        }
      ],
      "name": "ERC721InvalidApprover",
      "type": "error"
    },
    {
      "inputs": [
        {
          "internalType": "address",
          "name": "operator",
          "type": "address"
        }
      ],
      "name": "ERC721InvalidOperator",
      "type": "error"
    },
    {
      "inputs": [
        {
          "internalType": "address",
          "name": "owner",
          "type": "address"
        }
      ],
      "name": "ERC721InvalidOwner",
      "type": "error"
    },
    {
      "inputs": [
        {
          "internalType": "address",
          "name": "receiver",
          "type": "address"
        }
      ],
      "name": "ERC721InvalidReceiver",
      "type": "error"
    },
    {
      "inputs": [
        {
          "internalType": "address",
          "name": "sender",
          "type": "address"
        }
      ],
      "name": "ERC721InvalidSender",
      "type": "error"
    },
    {
      "inputs": [
        {
          "internalType": "uint256",
          "name": "tokenId",
          "type": "uint256"
        }
      ],
      "name": "ERC721NonexistentToken",
      "type": "error"
    },
    {
      "anonymous": false,
      "inputs": [
        {
          "indexed": true,
          "internalType": "address",
          "name": "owner",
          "type": "address"
        },
        {
          "indexed": true,
          "internalType": "address",
          "name": "approved",
          "type": "address"
        },
        {
          "indexed": true,
          "internalType": "uint256",
          "name": "tokenId",
          "type": "uint256"
        }
      ],
      "name": "Approval",
      "type": "event"
    },
    {
      "anonymous": false,
      "inputs": [
        {
          "indexed": true,
          "internalType": "address",
          "name": "owner",
          "type": "address"
        },
        {
          "indexed": true,
          "internalType": "address",
          "name": "operator",
          "type": "address"
        },
        {
          "indexed": false,
          "internalType": "bool",
          "name": "approved",
          "type": "bool"
        }
      ],
      "name": "ApprovalForAll",
      "type": "event"
    },
    {
      "anonymous": false,
      "inputs": [
        {
          "indexed": false,
          "internalType": "uint256",
          "name": "_fromTokenId",
          "type": "uint256"
        },
        {
          "indexed": false,
          "internalType": "uint256",
          "name": "_toTokenId",
          "type": "uint256"
        }
      ],
      "name": "BatchMetadataUpdate",
      "type": "event"
    },
    {
      "anonymous": false,
      "inputs": [
        {
          "indexed": false,
          "internalType": "uint256",
          "name": "_tokenId",
          "type": "uint256"
        }
      ],
      "name": "MetadataUpdate",
      "type": "event"
    },
    {
      "anonymous": false,
      "inputs": [
        {
          "indexed": false,
          "internalType": "uint256",
          "name": "tokenId",
          "type": "uint256"
        },
        {
          "components": [
            {
              "internalType": "uint256",
              "name": "timeStamp",
              "type": "uint256"
            },
            {
              "internalType": "string",
              "name": "uri",
              "type": "string"
            }
          ],
          "indexed": false,
          "internalType": "struct Prismia.ProductLifeCycle",
          "name": "newLifeCycle",
          "type": "tuple"
        }
      ],
      "name": "ProductLifeCycleUpdated",
      "type": "event"
    },
    {
      "anonymous": false,
      "inputs": [
        {
          "indexed": false,
          "internalType": "uint256",
          "name": "tokenId",
          "type": "uint256"
        },
        {
          "indexed": true,
          "internalType": "address",
          "name": "manufacturer",
          "type": "address"
        }
      ],
      "name": "ProductMinted",
      "type": "event"
    },
    {
      "anonymous": false,
      "inputs": [
        {
          "indexed": true,
          "internalType": "bytes32",
          "name": "role",
          "type": "bytes32"
        },
        {
          "indexed": true,
          "internalType": "bytes32",
          "name": "previousAdminRole",
          "type": "bytes32"
        },
        {
          "indexed": true,
          "internalType": "bytes32",
          "name": "newAdminRole",
          "type": "bytes32"
        }
      ],
      "name": "RoleAdminChanged",
      "type": "event"
    },
    {
      "anonymous": false,
      "inputs": [
        {
          "indexed": true,
          "internalType": "bytes32",
          "name": "role",
          "type": "bytes32"
        },
        {
          "indexed": true,
          "internalType": "address",
          "name": "account",
          "type": "address"
        },
        {
          "indexed": true,
          "internalType": "address",
          "name": "sender",
          "type": "address"
        }
      ],
      "name": "RoleGranted",
      "type": "event"
    },
    {
      "anonymous": false,
      "inputs": [
        {
          "indexed": true,
          "internalType": "bytes32",
          "name": "role",
          "type": "bytes32"
        },
        {
          "indexed": true,
          "internalType": "address",
          "name": "account",
          "type": "address"
        },
        {
          "indexed": true,
          "internalType": "address",
          "name": "sender",
          "type": "address"
        }
      ],
      "name": "RoleRevoked",
      "type": "event"
    },
    {
      "anonymous": false,
      "inputs": [
        {
          "indexed": true,
          "internalType": "address",
          "name": "from",
          "type": "address"
        },
        {
          "indexed": true,
          "internalType": "address",
          "name": "to",
          "type": "address"
        },
        {
          "indexed": true,
          "internalType": "uint256",
          "name": "tokenId",
          "type": "uint256"
        }
      ],
      "name": "Transfer",
      "type": "event"
    },
    {
      "inputs": [],
      "name": "DEFAULT_ADMIN_ROLE",
      "outputs": [
        {
          "internalType": "bytes32",
          "name": "",
          "type": "bytes32"
        }
      ],
      "stateMutability": "view",
      "type": "function"
    },
    {
      "inputs": [],
      "name": "MANUFACTURER",
      "outputs": [
        {
          "internalType": "bytes32",
          "name": "",
          "type": "bytes32"
        }
      ],
      "stateMutability": "view",
      "type": "function"
    },
    {
      "inputs": [
        {
          "internalType": "uint256",
          "name": "tokenId",
          "type": "uint256"
        },
        {
          "internalType": "string",
          "name": "uri",
          "type": "string"
        }
      ],
      "name": "addProductLifeCycle",
      "outputs": [],
      "stateMutability": "nonpayable",
      "type": "function"
    },
    {
      "inputs": [
        {
          "internalType": "address",
          "name": "to",
          "type": "address"
        },
        {
          "internalType": "uint256",
          "name": "tokenId",
          "type": "uint256"
        }
      ],
      "name": "approve",
      "outputs": [],
      "stateMutability": "nonpayable",
      "type": "function"
    },
    {
      "inputs": [
        {
          "internalType": "address",
          "name": "owner",
          "type": "address"
        }
      ],
      "name": "balanceOf",
      "outputs": [
        {
          "internalType": "uint256",
          "name": "",
          "type": "uint256"
        }
      ],
      "stateMutability": "view",
      "type": "function"
    },
    {
      "inputs": [
        {
          "internalType": "uint256",
          "name": "tokenId",
          "type": "uint256"
        }
      ],
      "name": "getApproved",
      "outputs": [
        {
          "internalType": "address",
          "name": "",
          "type": "address"
        }
      ],
      "stateMutability": "view",
      "type": "function"
    },
    {
      "inputs": [],
      "name": "getOwnedProduct",
      "outputs": [
        {
          "components": [
            {
              "internalType": "uint256",
              "name": "timeStamp",
              "type": "uint256"
            },
            {
              "internalType": "uint256",
              "name": "tokenId",
              "type": "uint256"
            }
          ],
          "internalType": "struct Prismia.Product",
          "name": "",
          "type": "tuple"
        }
      ],
      "stateMutability": "view",
      "type": "function"
    },
    {
      "inputs": [
        {
          "internalType": "uint256",
          "name": "tokenId",
          "type": "uint256"
        }
      ],
      "name": "getProductLifeCycle",
      "outputs": [
        {
          "components": [
            {
              "internalType": "uint256",
              "name": "timeStamp",
              "type": "uint256"
            },
            {
              "internalType": "string",
              "name": "uri",
              "type": "string"
            }
          ],
          "internalType": "struct Prismia.ProductLifeCycle[]",
          "name": "",
          "type": "tuple[]"
        }
      ],
      "stateMutability": "view",
      "type": "function"
    },
    {
      "inputs": [
        {
          "internalType": "bytes32",
          "name": "role",
          "type": "bytes32"
        }
      ],
      "name": "getRoleAdmin",
      "outputs": [
        {
          "internalType": "bytes32",
          "name": "",
          "type": "bytes32"
        }
      ],
      "stateMutability": "view",
      "type": "function"
    },
    {
      "inputs": [
        {
          "internalType": "bytes32",
          "name": "role",
          "type": "bytes32"
        },
        {
          "internalType": "address",
          "name": "account",
          "type": "address"
        }
      ],
      "name": "grantRole",
      "outputs": [],
      "stateMutability": "nonpayable",
      "type": "function"
    },
    {
      "inputs": [
        {
          "internalType": "bytes32",
          "name": "role",
          "type": "bytes32"
        },
        {
          "internalType": "address",
          "name": "account",
          "type": "address"
        }
      ],
      "name": "hasRole",
      "outputs": [
        {
          "internalType": "bool",
          "name": "",
          "type": "bool"
        }
      ],
      "stateMutability": "view",
      "type": "function"
    },
    {
      "inputs": [
        {
          "internalType": "address",
          "name": "owner",
          "type": "address"
        },
        {
          "internalType": "address",
          "name": "operator",
          "type": "address"
        }
      ],
      "name": "isApprovedForAll",
      "outputs": [
        {
          "internalType": "bool",
          "name": "",
          "type": "bool"
        }
      ],
      "stateMutability": "view",
      "type": "function"
    },
    {
      "inputs": [
        {
          "internalType": "string",
          "name": "uri",
          "type": "string"
        },
        {
          "internalType": "address",
          "name": "to",
          "type": "address"
        }
      ],
      "name": "mintProduct",
      "outputs": [],
      "stateMutability": "nonpayable",
      "type": "function"
    },
    {
      "inputs": [],
      "name": "name",
      "outputs": [
        {
          "internalType": "string",
          "name": "",
          "type": "string"
        }
      ],
      "stateMutability": "view",
      "type": "function"
    },
    {
      "inputs": [
        {
          "internalType": "uint256",
          "name": "tokenId",
          "type": "uint256"
        }
      ],
      "name": "ownerOf",
      "outputs": [
        {
          "internalType": "address",
          "name": "",
          "type": "address"
        }
      ],
      "stateMutability": "view",
      "type": "function"
    },
    {
      "inputs": [
        {
          "internalType": "bytes32",
          "name": "role",
          "type": "bytes32"
        },
        {
          "internalType": "address",
          "name": "callerConfirmation",
          "type": "address"
        }
      ],
      "name": "renounceRole",
      "outputs": [],
      "stateMutability": "nonpayable",
      "type": "function"
    },
    {
      "inputs": [
        {
          "internalType": "bytes32",
          "name": "role",
          "type": "bytes32"
        },
        {
          "internalType": "address",
          "name": "account",
          "type": "address"
        }
      ],
      "name": "revokeRole",
      "outputs": [],
      "stateMutability": "nonpayable",
      "type": "function"
    },
    {
      "inputs": [
        {
          "internalType": "address",
          "name": "from",
          "type": "address"
        },
        {
          "internalType": "address",
          "name": "to",
          "type": "address"
        },
        {
          "internalType": "uint256",
          "name": "tokenId",
          "type": "uint256"
        }
      ],
      "name": "safeTransferFrom",
      "outputs": [],
      "stateMutability": "nonpayable",
      "type": "function"
    },
    {
      "inputs": [
        {
          "internalType": "address",
          "name": "from",
          "type": "address"
        },
        {
          "internalType": "address",
          "name": "to",
          "type": "address"
        },
        {
          "internalType": "uint256",
          "name": "tokenId",
          "type": "uint256"
        },
        {
          "internalType": "bytes",
          "name": "data",
          "type": "bytes"
        }
      ],
      "name": "safeTransferFrom",
      "outputs": [],
      "stateMutability": "nonpayable",
      "type": "function"
    },
    {
      "inputs": [
        {
          "internalType": "address",
          "name": "operator",
          "type": "address"
        },
        {
          "internalType": "bool",
          "name": "approved",
          "type": "bool"
        }
      ],
      "name": "setApprovalForAll",
      "outputs": [],
      "stateMutability": "nonpayable",
      "type": "function"
    },
    {
      "inputs": [
        {
          "internalType": "bytes4",
          "name": "interfaceId",
          "type": "bytes4"
        }
      ],
      "name": "supportsInterface",
      "outputs": [
        {
          "internalType": "bool",
          "name": "",
          "type": "bool"
        }
      ],
      "stateMutability": "view",
      "type": "function"
    },
    {
      "inputs": [],
      "name": "symbol",
      "outputs": [
        {
          "internalType": "string",
          "name": "",
          "type": "string"
        }
      ],
      "stateMutability": "view",
      "type": "function"
    },
    {
      "inputs": [
        {
          "internalType": "uint256",
          "name": "tokenId",
          "type": "uint256"
        }
      ],
      "name": "tokenURI",
      "outputs": [
        {
          "internalType": "string",
          "name": "",
          "type": "string"
        }
      ],
      "stateMutability": "view",
      "type": "function"
    },
    {
      "inputs": [
        {
          "internalType": "address",
          "name": "from",
          "type": "address"
        },
        {
          "internalType": "address",
          "name": "to",
          "type": "address"
        },
        {
          "internalType": "uint256",
          "name": "tokenId",
          "type": "uint256"
        }
      ],
      "name": "transferFrom",
      "outputs": [],
      "stateMutability": "nonpayable",
      "type": "function"
    }
  ],
  "bytecode": "0x608060405234801561001057600080fd5b5060405161381a38038061381a833981810160405281019061003291906102e0565b6040518060400160405280600781526020017f507269736d6961000000000000000000000000000000000000000000000000008152506040518060400160405280600381526020017f445050000000000000000000000000000000000000000000000000000000000081525081600090816100ad9190610570565b5080600190816100bd9190610570565b5050506100d36000801b8361010c60201b60201c565b506101047f6659d833875b88922d2576dad6c137a09ba676496bb2010bf8a72397792167a08261010c60201b60201c565b505050610642565b600061011e838361020a60201b60201c565b6101ff5760016007600085815260200190815260200160002060000160008473ffffffffffffffffffffffffffffffffffffffff1673ffffffffffffffffffffffffffffffffffffffff16815260200190815260200160002060006101000a81548160ff02191690831515021790555061019c61027560201b60201c565b73ffffffffffffffffffffffffffffffffffffffff168273ffffffffffffffffffffffffffffffffffffffff16847f2f8788117e7eff1d82e926ec794901d17c78024a50270940304540a733656f0d60405160405180910390a460019050610204565b600090505b92915050565b60006007600084815260200190815260200160002060000160008373ffffffffffffffffffffffffffffffffffffffff1673ffffffffffffffffffffffffffffffffffffffff16815260200190815260200160002060009054906101000a900460ff16905092915050565b600033905090565b600080fd5b600073ffffffffffffffffffffffffffffffffffffffff82169050919050565b60006102ad82610282565b9050919050565b6102bd816102a2565b81146102c857600080fd5b50565b6000815190506102da816102b4565b92915050565b600080604083850312156102f7576102f661027d565b5b6000610305858286016102cb565b9250506020610316858286016102cb565b9150509250929050565b600081519050919050565b7f4e487b7100000000000000000000000000000000000000000000000000000000600052604160045260246000fd5b7f4e487b7100000000000000000000000000000000000000000000000000000000600052602260045260246000fd5b600060028204905060018216806103a157607f821691505b6020821081036103b4576103b361035a565b5b50919050565b60008190508160005260206000209050919050565b60006020601f8301049050919050565b600082821b905092915050565b60006008830261041c7fffffffffffffffffffffffffffffffffffffffffffffffffffffffffffffffff826103df565b61042686836103df565b95508019841693508086168417925050509392505050565b6000819050919050565b6000819050919050565b600061046d6104686104638461043e565b610448565b61043e565b9050919050565b6000819050919050565b61048783610452565b61049b61049382610474565b8484546103ec565b825550505050565b600090565b6104b06104a3565b6104bb81848461047e565b505050565b5b818110156104df576104d46000826104a8565b6001810190506104c1565b5050565b601f821115610524576104f5816103ba565b6104fe846103cf565b8101602085101561050d578190505b610521610519856103cf565b8301826104c0565b50505b505050565b600082821c905092915050565b600061054760001984600802610529565b1980831691505092915050565b60006105608383610536565b9150826002028217905092915050565b61057982610320565b67ffffffffffffffff8111156105925761059161032b565b5b61059c8254610389565b6105a78282856104e3565b600060209050601f8311600181146105da57600084156105c8578287015190505b6105d28582610554565b86555061063a565b601f1984166105e8866103ba565b60005b82811015610610578489015182556001820191506020850194506020810190506105eb565b8683101561062d5784890151610629601f891682610536565b8355505b6001600288020188555050505b505050505050565b6131c9806106516000396000f3fe608060405234801561001057600080fd5b50600436106101585760003560e01c80636eb6b039116100c3578063a22cb4651161007c578063a22cb465146103eb578063b7693a1314610407578063b88d4fde14610423578063c87b56dd1461043f578063d547741f1461046f578063e985e9c51461048b57610158565b80636eb6b0391461030357806370a082311461033357806376d5523e1461036357806391d148541461037f57806395d89b41146103af578063a217fddf146103cd57610158565b80632f2ff15d116101155780632f2ff15d1461024357806336568abe1461025f57806342842e0e1461027b57806345a6217d1461029757806349ec99ee146102b55780636352211e146102d357610158565b806301ffc9a71461015d57806306fdde031461018d578063081812fc146101ab578063095ea7b3146101db57806323b872dd146101f7578063248a9ca314610213575b600080fd5b61017760048036038101906101729190612232565b6104bb565b604051610184919061227a565b60405180910390f35b6101956104cd565b6040516101a29190612325565b60405180910390f35b6101c560048036038101906101c0919061237d565b61055f565b6040516101d291906123eb565b60405180910390f35b6101f560048036038101906101f09190612432565b61057b565b005b610211600480360381019061020c9190612472565b610591565b005b61022d600480360381019061022891906124fb565b610693565b60405161023a9190612537565b60405180910390f35b61025d60048036038101906102589190612552565b6106b3565b005b61027960048036038101906102749190612552565b6106d5565b005b61029560048036038101906102909190612472565b610750565b005b61029f610770565b6040516102ac91906125d0565b60405180910390f35b6102bd6107db565b6040516102ca9190612537565b60405180910390f35b6102ed60048036038101906102e8919061237d565b6107ff565b6040516102fa91906123eb565b60405180910390f35b61031d6004803603810190610318919061237d565b610811565b60405161032a9190612734565b60405180910390f35b61034d60048036038101906103489190612756565b61091f565b60405161035a9190612792565b60405180910390f35b61037d600480360381019061037891906128e2565b6109d9565b005b61039960048036038101906103949190612552565b610af1565b6040516103a6919061227a565b60405180910390f35b6103b7610b5c565b6040516103c49190612325565b60405180910390f35b6103d5610bee565b6040516103e29190612537565b60405180910390f35b6104056004803603810190610400919061296a565b610bf5565b005b610421600480360381019061041c91906129aa565b610c0b565b005b61043d60048036038101906104389190612aa7565b610d63565b005b6104596004803603810190610454919061237d565b610d88565b6040516104669190612325565b60405180910390f35b61048960048036038101906104849190612552565b610d9a565b005b6104a560048036038101906104a09190612b2a565b610dbc565b6040516104b2919061227a565b60405180910390f35b60006104c682610e50565b9050919050565b6060600080546104dc90612b99565b80601f016020809104026020016040519081016040528092919081815260200182805461050890612b99565b80156105555780601f1061052a57610100808354040283529160200191610555565b820191906000526020600020905b81548152906001019060200180831161053857829003601f168201915b5050505050905090565b600061056a82610eca565b5061057482610f52565b9050919050565b61058d8282610588610f8f565b610f97565b5050565b600073ffffffffffffffffffffffffffffffffffffffff168273ffffffffffffffffffffffffffffffffffffffff16036106035760006040517f64a0ae920000000000000000000000000000000000000000000000000000000081526004016105fa91906123eb565b60405180910390fd5b60006106178383610612610f8f565b610fa9565b90508373ffffffffffffffffffffffffffffffffffffffff168173ffffffffffffffffffffffffffffffffffffffff161461068d578382826040517f64283d7b00000000000000000000000000000000000000000000000000000000815260040161068493929190612bca565b60405180910390fd5b50505050565b600060076000838152602001908152602001600020600101549050919050565b6106bc82610693565b6106c5816111c3565b6106cf83836111d7565b50505050565b6106dd610f8f565b73ffffffffffffffffffffffffffffffffffffffff168173ffffffffffffffffffffffffffffffffffffffff1614610741576040517f6697b23200000000000000000000000000000000000000000000000000000000815260040160405180910390fd5b61074b82826112c9565b505050565b61076b83838360405180602001604052806000815250610d63565b505050565b6107786121ac565b600a60003373ffffffffffffffffffffffffffffffffffffffff1673ffffffffffffffffffffffffffffffffffffffff16815260200190815260200160002060405180604001604052908160008201548152602001600182015481525050905090565b7f6659d833875b88922d2576dad6c137a09ba676496bb2010bf8a72397792167a081565b600061080a82610eca565b9050919050565b606060096000838152602001908152602001600020805480602002602001604051908101604052809291908181526020016000905b8282101561091457838290600052602060002090600202016040518060400160405290816000820154815260200160018201805461088390612b99565b80601f01602080910402602001604051908101604052809291908181526020018280546108af90612b99565b80156108fc5780601f106108d1576101008083540402835291602001916108fc565b820191906000526020600020905b8154815290600101906020018083116108df57829003601f168201915b50505050508152505081526020019060010190610846565b505050509050919050565b60008073ffffffffffffffffffffffffffffffffffffffff168273ffffffffffffffffffffffffffffffffffffffff16036109925760006040517f89c62b6400000000000000000000000000000000000000000000000000000000815260040161098991906123eb565b60405180910390fd5b600360008373ffffffffffffffffffffffffffffffffffffffff1673ffffffffffffffffffffffffffffffffffffffff168152602001908152602001600020549050919050565b7f6659d833875b88922d2576dad6c137a09ba676496bb2010bf8a72397792167a0610a03816111c3565b600060086000815480929190610a1890612c30565b919050559050610a2883826113bc565b610a3281856113da565b604051806040016040528042815260200182815250600a60003373ffffffffffffffffffffffffffffffffffffffff1673ffffffffffffffffffffffffffffffffffffffff16815260200190815260200160002060008201518160000155602082015181600101559050503373ffffffffffffffffffffffffffffffffffffffff167ff3a853d626792f09966551e5316e149f7320d034cb6a408a8b3d8eba20deea3b82604051610ae39190612792565b60405180910390a250505050565b60006007600084815260200190815260200160002060000160008373ffffffffffffffffffffffffffffffffffffffff1673ffffffffffffffffffffffffffffffffffffffff16815260200190815260200160002060009054906101000a900460ff16905092915050565b606060018054610b6b90612b99565b80601f0160208091040260200160405190810160405280929190818152602001828054610b9790612b99565b8015610be45780601f10610bb957610100808354040283529160200191610be4565b820191906000526020600020905b815481529060010190602001808311610bc757829003601f168201915b5050505050905090565b6000801b81565b610c07610c00610f8f565b8383611436565b5050565b7f6659d833875b88922d2576dad6c137a09ba676496bb2010bf8a72397792167a0610c35816111c3565b600073ffffffffffffffffffffffffffffffffffffffff16610c56846115a5565b73ffffffffffffffffffffffffffffffffffffffff1603610cac576040517f08c379a0000000000000000000000000000000000000000000000000000000008152600401610ca390612cc4565b60405180910390fd5b6000604051806040016040528042815260200184815250905060096000858152602001908152602001600020819080600181540180825580915050600190039060005260206000209060020201600090919091909150600082015181600001556020820151816001019081610d219190612e90565b5050507f0add1dfa1a0ccce672f7fe0eb097977ca212252de04643915c4a1ef83895227a8482604051610d55929190612f9f565b60405180910390a150505050565b610d6e848484610591565b610d82610d79610f8f565b858585856115e2565b50505050565b6060610d9382611793565b9050919050565b610da382610693565b610dac816111c3565b610db683836112c9565b50505050565b6000600560008473ffffffffffffffffffffffffffffffffffffffff1673ffffffffffffffffffffffffffffffffffffffff16815260200190815260200160002060008373ffffffffffffffffffffffffffffffffffffffff1673ffffffffffffffffffffffffffffffffffffffff16815260200190815260200160002060009054906101000a900460ff16905092915050565b60007f7965db0b000000000000000000000000000000000000000000000000000000007bffffffffffffffffffffffffffffffffffffffffffffffffffffffff1916827bffffffffffffffffffffffffffffffffffffffffffffffffffffffff19161480610ec35750610ec2826118a6565b5b9050919050565b600080610ed6836115a5565b9050600073ffffffffffffffffffffffffffffffffffffffff168173ffffffffffffffffffffffffffffffffffffffff1603610f4957826040517f7e273289000000000000000000000000000000000000000000000000000000008152600401610f409190612792565b60405180910390fd5b80915050919050565b60006004600083815260200190815260200160002060009054906101000a900473ffffffffffffffffffffffffffffffffffffffff169050919050565b600033905090565b610fa48383836001611907565b505050565b600080610fb5846115a5565b9050600073ffffffffffffffffffffffffffffffffffffffff168373ffffffffffffffffffffffffffffffffffffffff1614610ff757610ff6818486611acc565b5b600073ffffffffffffffffffffffffffffffffffffffff168173ffffffffffffffffffffffffffffffffffffffff161461108857611039600085600080611907565b6001600360008373ffffffffffffffffffffffffffffffffffffffff1673ffffffffffffffffffffffffffffffffffffffff168152602001908152602001600020600082825403925050819055505b600073ffffffffffffffffffffffffffffffffffffffff168573ffffffffffffffffffffffffffffffffffffffff161461110b576001600360008773ffffffffffffffffffffffffffffffffffffffff1673ffffffffffffffffffffffffffffffffffffffff168152602001908152602001600020600082825401925050819055505b846002600086815260200190815260200160002060006101000a81548173ffffffffffffffffffffffffffffffffffffffff021916908373ffffffffffffffffffffffffffffffffffffffff160217905550838573ffffffffffffffffffffffffffffffffffffffff168273ffffffffffffffffffffffffffffffffffffffff167fddf252ad1be2c89b69c2b068fc378daa952ba7f163c4a11628f55a4df523b3ef60405160405180910390a4809150509392505050565b6111d4816111cf610f8f565b611b90565b50565b60006111e38383610af1565b6112be5760016007600085815260200190815260200160002060000160008473ffffffffffffffffffffffffffffffffffffffff1673ffffffffffffffffffffffffffffffffffffffff16815260200190815260200160002060006101000a81548160ff02191690831515021790555061125b610f8f565b73ffffffffffffffffffffffffffffffffffffffff168273ffffffffffffffffffffffffffffffffffffffff16847f2f8788117e7eff1d82e926ec794901d17c78024a50270940304540a733656f0d60405160405180910390a4600190506112c3565b600090505b92915050565b60006112d58383610af1565b156113b15760006007600085815260200190815260200160002060000160008473ffffffffffffffffffffffffffffffffffffffff1673ffffffffffffffffffffffffffffffffffffffff16815260200190815260200160002060006101000a81548160ff02191690831515021790555061134e610f8f565b73ffffffffffffffffffffffffffffffffffffffff168273ffffffffffffffffffffffffffffffffffffffff16847ff6391f5c32d9c69d2a47ea670b442974b53935d1edc7fd64eb21e047a839171b60405160405180910390a4600190506113b6565b600090505b92915050565b6113d6828260405180602001604052806000815250611be1565b5050565b806006600084815260200190815260200160002090816113fa9190612e90565b507ff8e1a15aba9398e019f0b49df1a4fde98ee17ae345cb5f6b5e2c27f5033e8ce78260405161142a9190612792565b60405180910390a15050565b600073ffffffffffffffffffffffffffffffffffffffff168273ffffffffffffffffffffffffffffffffffffffff16036114a757816040517f5b08ba1800000000000000000000000000000000000000000000000000000000815260040161149e91906123eb565b60405180910390fd5b80600560008573ffffffffffffffffffffffffffffffffffffffff1673ffffffffffffffffffffffffffffffffffffffff16815260200190815260200160002060008473ffffffffffffffffffffffffffffffffffffffff1673ffffffffffffffffffffffffffffffffffffffff16815260200190815260200160002060006101000a81548160ff0219169083151502179055508173ffffffffffffffffffffffffffffffffffffffff168373ffffffffffffffffffffffffffffffffffffffff167f17307eab39ab6107e8899845ad3d59bd9653f200f220920489ca2b5937696c3183604051611598919061227a565b60405180910390a3505050565b60006002600083815260200190815260200160002060009054906101000a900473ffffffffffffffffffffffffffffffffffffffff169050919050565b60008373ffffffffffffffffffffffffffffffffffffffff163b111561178c578273ffffffffffffffffffffffffffffffffffffffff1663150b7a02868685856040518563ffffffff1660e01b81526004016116419493929190613024565b6020604051808303816000875af192505050801561167d57506040513d601f19601f8201168201806040525081019061167a9190613085565b60015b611701573d80600081146116ad576040519150601f19603f3d011682016040523d82523d6000602084013e6116b2565b606091505b5060008151036116f957836040517f64a0ae920000000000000000000000000000000000000000000000000000000081526004016116f091906123eb565b60405180910390fd5b805181602001fd5b63150b7a0260e01b7bffffffffffffffffffffffffffffffffffffffffffffffffffffffff1916817bffffffffffffffffffffffffffffffffffffffffffffffffffffffff19161461178a57836040517f64a0ae9200000000000000000000000000000000000000000000000000000000815260040161178191906123eb565b60405180910390fd5b505b5050505050565b606061179e82610eca565b5060006006600084815260200190815260200160002080546117bf90612b99565b80601f01602080910402602001604051908101604052809291908181526020018280546117eb90612b99565b80156118385780601f1061180d57610100808354040283529160200191611838565b820191906000526020600020905b81548152906001019060200180831161181b57829003601f168201915b505050505090506000611849611c05565b9050600081510361185e5781925050506118a1565b60008251111561189357808260405160200161187b9291906130ee565b604051602081830303815290604052925050506118a1565b61189c84611c1c565b925050505b919050565b6000634906490660e01b7bffffffffffffffffffffffffffffffffffffffffffffffffffffffff1916827bffffffffffffffffffffffffffffffffffffffffffffffffffffffff1916148061190057506118ff82611c85565b5b9050919050565b80806119405750600073ffffffffffffffffffffffffffffffffffffffff168273ffffffffffffffffffffffffffffffffffffffff1614155b15611a7457600061195084610eca565b9050600073ffffffffffffffffffffffffffffffffffffffff168373ffffffffffffffffffffffffffffffffffffffff16141580156119bb57508273ffffffffffffffffffffffffffffffffffffffff168173ffffffffffffffffffffffffffffffffffffffff1614155b80156119ce57506119cc8184610dbc565b155b15611a1057826040517fa9fbf51f000000000000000000000000000000000000000000000000000000008152600401611a0791906123eb565b60405180910390fd5b8115611a7257838573ffffffffffffffffffffffffffffffffffffffff168273ffffffffffffffffffffffffffffffffffffffff167f8c5be1e5ebec7d5bd14f71427d1e84f3dd0314c0f7b2291e5b200ac8c7c3b92560405160405180910390a45b505b836004600085815260200190815260200160002060006101000a81548173ffffffffffffffffffffffffffffffffffffffff021916908373ffffffffffffffffffffffffffffffffffffffff16021790555050505050565b611ad7838383611d67565b611b8b57600073ffffffffffffffffffffffffffffffffffffffff168373ffffffffffffffffffffffffffffffffffffffff1603611b4c57806040517f7e273289000000000000000000000000000000000000000000000000000000008152600401611b439190612792565b60405180910390fd5b81816040517f177e802f000000000000000000000000000000000000000000000000000000008152600401611b82929190613112565b60405180910390fd5b505050565b611b9a8282610af1565b611bdd5780826040517fe2517d3f000000000000000000000000000000000000000000000000000000008152600401611bd492919061313b565b60405180910390fd5b5050565b611beb8383611e28565b611c00611bf6610f8f565b60008585856115e2565b505050565b606060405180602001604052806000815250905090565b6060611c2782610eca565b506000611c32611c05565b90506000815111611c525760405180602001604052806000815250611c7d565b80611c5c84611f21565b604051602001611c6d9291906130ee565b6040516020818303038152906040525b915050919050565b60007f80ac58cd000000000000000000000000000000000000000000000000000000007bffffffffffffffffffffffffffffffffffffffffffffffffffffffff1916827bffffffffffffffffffffffffffffffffffffffffffffffffffffffff19161480611d5057507f5b5e139f000000000000000000000000000000000000000000000000000000007bffffffffffffffffffffffffffffffffffffffffffffffffffffffff1916827bffffffffffffffffffffffffffffffffffffffffffffffffffffffff1916145b80611d605750611d5f82611fef565b5b9050919050565b60008073ffffffffffffffffffffffffffffffffffffffff168373ffffffffffffffffffffffffffffffffffffffff1614158015611e1f57508273ffffffffffffffffffffffffffffffffffffffff168473ffffffffffffffffffffffffffffffffffffffff161480611de05750611ddf8484610dbc565b5b80611e1e57508273ffffffffffffffffffffffffffffffffffffffff16611e0683610f52565b73ffffffffffffffffffffffffffffffffffffffff16145b5b90509392505050565b600073ffffffffffffffffffffffffffffffffffffffff168273ffffffffffffffffffffffffffffffffffffffff1603611e9a5760006040517f64a0ae92000000000000000000000000000000000000000000000000000000008152600401611e9191906123eb565b60405180910390fd5b6000611ea883836000610fa9565b9050600073ffffffffffffffffffffffffffffffffffffffff168173ffffffffffffffffffffffffffffffffffffffff1614611f1c5760006040517f73c6ac6e000000000000000000000000000000000000000000000000000000008152600401611f1391906123eb565b60405180910390fd5b505050565b606060006001611f3084612059565b01905060008167ffffffffffffffff811115611f4f57611f4e6127b7565b5b6040519080825280601f01601f191660200182016040528015611f815781602001600182028036833780820191505090505b509050600082602001820190505b600115611fe4578080600190039150507f3031323334353637383961626364656600000000000000000000000000000000600a86061a8153600a8581611fd857611fd7613164565b5b04945060008503611f8f575b819350505050919050565b60007f01ffc9a7000000000000000000000000000000000000000000000000000000007bffffffffffffffffffffffffffffffffffffffffffffffffffffffff1916827bffffffffffffffffffffffffffffffffffffffffffffffffffffffff1916149050919050565b600080600090507a184f03e93ff9f4daa797ed6e38ed64bf6a1f01000000000000000083106120b7577a184f03e93ff9f4daa797ed6e38ed64bf6a1f01000000000000000083816120ad576120ac613164565b5b0492506040810190505b6d04ee2d6d415b85acef810000000083106120f4576d04ee2d6d415b85acef810000000083816120ea576120e9613164565b5b0492506020810190505b662386f26fc10000831061212357662386f26fc10000838161211957612118613164565b5b0492506010810190505b6305f5e100831061214c576305f5e100838161214257612141613164565b5b0492506008810190505b612710831061217157612710838161216757612166613164565b5b0492506004810190505b60648310612194576064838161218a57612189613164565b5b0492506002810190505b600a83106121a3576001810190505b80915050919050565b604051806040016040528060008152602001600081525090565b6000604051905090565b600080fd5b600080fd5b60007fffffffff0000000000000000000000000000000000000000000000000000000082169050919050565b61220f816121da565b811461221a57600080fd5b50565b60008135905061222c81612206565b92915050565b600060208284031215612248576122476121d0565b5b60006122568482850161221d565b91505092915050565b60008115159050919050565b6122748161225f565b82525050565b600060208201905061228f600083018461226b565b92915050565b600081519050919050565b600082825260208201905092915050565b60005b838110156122cf5780820151818401526020810190506122b4565b60008484015250505050565b6000601f19601f8301169050919050565b60006122f782612295565b61230181856122a0565b93506123118185602086016122b1565b61231a816122db565b840191505092915050565b6000602082019050818103600083015261233f81846122ec565b905092915050565b6000819050919050565b61235a81612347565b811461236557600080fd5b50565b60008135905061237781612351565b92915050565b600060208284031215612393576123926121d0565b5b60006123a184828501612368565b91505092915050565b600073ffffffffffffffffffffffffffffffffffffffff82169050919050565b60006123d5826123aa565b9050919050565b6123e5816123ca565b82525050565b600060208201905061240060008301846123dc565b92915050565b61240f816123ca565b811461241a57600080fd5b50565b60008135905061242c81612406565b92915050565b60008060408385031215612449576124486121d0565b5b60006124578582860161241d565b925050602061246885828601612368565b9150509250929050565b60008060006060848603121561248b5761248a6121d0565b5b60006124998682870161241d565b93505060206124aa8682870161241d565b92505060406124bb86828701612368565b9150509250925092565b6000819050919050565b6124d8816124c5565b81146124e357600080fd5b50565b6000813590506124f5816124cf565b92915050565b600060208284031215612511576125106121d0565b5b600061251f848285016124e6565b91505092915050565b612531816124c5565b82525050565b600060208201905061254c6000830184612528565b92915050565b60008060408385031215612569576125686121d0565b5b6000612577858286016124e6565b92505060206125888582860161241d565b9150509250929050565b61259b81612347565b82525050565b6040820160008201516125b76000850182612592565b5060208201516125ca6020850182612592565b50505050565b60006040820190506125e560008301846125a1565b92915050565b600081519050919050565b600082825260208201905092915050565b6000819050602082019050919050565b600082825260208201905092915050565b600061263382612295565b61263d8185612617565b935061264d8185602086016122b1565b612656816122db565b840191505092915050565b60006040830160008301516126796000860182612592565b50602083015184820360208601526126918282612628565b9150508091505092915050565b60006126aa8383612661565b905092915050565b6000602082019050919050565b60006126ca826125eb565b6126d481856125f6565b9350836020820285016126e685612607565b8060005b858110156127225784840389528151612703858261269e565b945061270e836126b2565b925060208a019950506001810190506126ea565b50829750879550505050505092915050565b6000602082019050818103600083015261274e81846126bf565b905092915050565b60006020828403121561276c5761276b6121d0565b5b600061277a8482850161241d565b91505092915050565b61278c81612347565b82525050565b60006020820190506127a76000830184612783565b92915050565b600080fd5b600080fd5b7f4e487b7100000000000000000000000000000000000000000000000000000000600052604160045260246000fd5b6127ef826122db565b810181811067ffffffffffffffff8211171561280e5761280d6127b7565b5b80604052505050565b60006128216121c6565b905061282d82826127e6565b919050565b600067ffffffffffffffff82111561284d5761284c6127b7565b5b612856826122db565b9050602081019050919050565b82818337600083830152505050565b600061288561288084612832565b612817565b9050828152602081018484840111156128a1576128a06127b2565b5b6128ac848285612863565b509392505050565b600082601f8301126128c9576128c86127ad565b5b81356128d9848260208601612872565b91505092915050565b600080604083850312156128f9576128f86121d0565b5b600083013567ffffffffffffffff811115612917576129166121d5565b5b612923858286016128b4565b92505060206129348582860161241d565b9150509250929050565b6129478161225f565b811461295257600080fd5b50565b6000813590506129648161293e565b92915050565b60008060408385031215612981576129806121d0565b5b600061298f8582860161241d565b92505060206129a085828601612955565b9150509250929050565b600080604083850312156129c1576129c06121d0565b5b60006129cf85828601612368565b925050602083013567ffffffffffffffff8111156129f0576129ef6121d5565b5b6129fc858286016128b4565b9150509250929050565b600067ffffffffffffffff821115612a2157612a206127b7565b5b612a2a826122db565b9050602081019050919050565b6000612a4a612a4584612a06565b612817565b905082815260208101848484011115612a6657612a656127b2565b5b612a71848285612863565b509392505050565b600082601f830112612a8e57612a8d6127ad565b5b8135612a9e848260208601612a37565b91505092915050565b60008060008060808587031215612ac157612ac06121d0565b5b6000612acf8782880161241d565b9450506020612ae08782880161241d565b9350506040612af187828801612368565b925050606085013567ffffffffffffffff811115612b1257612b116121d5565b5b612b1e87828801612a79565b91505092959194509250565b60008060408385031215612b4157612b406121d0565b5b6000612b4f8582860161241d565b9250506020612b608582860161241d565b9150509250929050565b7f4e487b7100000000000000000000000000000000000000000000000000000000600052602260045260246000fd5b60006002820490506001821680612bb157607f821691505b602082108103612bc457612bc3612b6a565b5b50919050565b6000606082019050612bdf60008301866123dc565b612bec6020830185612783565b612bf960408301846123dc565b949350505050565b7f4e487b7100000000000000000000000000000000000000000000000000000000600052601160045260246000fd5b6000612c3b82612347565b91507fffffffffffffffffffffffffffffffffffffffffffffffffffffffffffffffff8203612c6d57612c6c612c01565b5b600182019050919050565b7f546f6b656e20646f6573206e6f74206578697374000000000000000000000000600082015250565b6000612cae6014836122a0565b9150612cb982612c78565b602082019050919050565b60006020820190508181036000830152612cdd81612ca1565b9050919050565b60008190508160005260206000209050919050565b60006020601f8301049050919050565b600082821b905092915050565b600060088302612d467fffffffffffffffffffffffffffffffffffffffffffffffffffffffffffffffff82612d09565b612d508683612d09565b95508019841693508086168417925050509392505050565b6000819050919050565b6000612d8d612d88612d8384612347565b612d68565b612347565b9050919050565b6000819050919050565b612da783612d72565b612dbb612db382612d94565b848454612d16565b825550505050565b600090565b612dd0612dc3565b612ddb818484612d9e565b505050565b5b81811015612dff57612df4600082612dc8565b600181019050612de1565b5050565b601f821115612e4457612e1581612ce4565b612e1e84612cf9565b81016020851015612e2d578190505b612e41612e3985612cf9565b830182612de0565b50505b505050565b600082821c905092915050565b6000612e6760001984600802612e49565b1980831691505092915050565b6000612e808383612e56565b9150826002028217905092915050565b612e9982612295565b67ffffffffffffffff811115612eb257612eb16127b7565b5b612ebc8254612b99565b612ec7828285612e03565b600060209050601f831160018114612efa5760008415612ee8578287015190505b612ef28582612e74565b865550612f5a565b601f198416612f0886612ce4565b60005b82811015612f3057848901518255600182019150602085019450602081019050612f0b565b86831015612f4d5784890151612f49601f891682612e56565b8355505b6001600288020188555050505b505050505050565b6000604083016000830151612f7a6000860182612592565b5060208301518482036020860152612f928282612628565b9150508091505092915050565b6000604082019050612fb46000830185612783565b8181036020830152612fc68184612f62565b90509392505050565b600081519050919050565b600082825260208201905092915050565b6000612ff682612fcf565b6130008185612fda565b93506130108185602086016122b1565b613019816122db565b840191505092915050565b600060808201905061303960008301876123dc565b61304660208301866123dc565b6130536040830185612783565b81810360608301526130658184612feb565b905095945050505050565b60008151905061307f81612206565b92915050565b60006020828403121561309b5761309a6121d0565b5b60006130a984828501613070565b91505092915050565b600081905092915050565b60006130c882612295565b6130d281856130b2565b93506130e28185602086016122b1565b80840191505092915050565b60006130fa82856130bd565b915061310682846130bd565b91508190509392505050565b600060408201905061312760008301856123dc565b6131346020830184612783565b9392505050565b600060408201905061315060008301856123dc565b61315d6020830184612528565b9392505050565b7f4e487b7100000000000000000000000000000000000000000000000000000000600052601260045260246000fdfea264697066735822122086b1f301c5e0c6c396ae11c43b5fe16d6bbe51863e58560836fa6194cec5a41464736f6c634300081c0033",
  "linkReferences": {},
  "deployedLinkReferences": {}
}